:100000000C949F010C94C9010C94C9010C94C90172
:100010000C94C9010C94C9010C94C9010C94C90138
:100020000C94C9010C94C9010C94C9010C94C90128
:100030000C94C9010C94C9010C942A0C0C94C901AC
:100040000C94C9010C94C9010C94C9010C94C90108
:100050000C94C9010C94C9010C94C9010C94C901F8
:100060000C94C9010C94C9010C94C9010C94C901E8
:100070000C94C9010C94C9010C94C9010C94C901D8
:100080000C94C9010C94C9010C94C9010C94C901C8
:100090000C94C9010C94C9010C94C9010C94C901B8
:1000A0000C94C9010C94C9010C94C9010C94C901A8
:1000B0000C94C9010C94C9010C94C9010C94C90198
:1000C0000C94C9010C94C9010C94C9010C94C90188
:1000D0000C94C9010C94C9010C94C9010C94C90178
:1000E0000C94C9010C94C9010C94C9010C94C90168
:1000F0000C94C9010C94C9010C94C9010C94C90158
:100100000C94C9010C94C9010C94C9010C94C90147
:100110000C94C9010C94C9010C94C9010C94C90137
:100120000C94C9010C94C9010C94C9010C94C90127
:100130000C94C9010C94C9010C94C9010C94C90117
:100140000C94C9010C94C9010C94C9010C94C90107
:100150000C94C9010C94C9010C94C9010C94C901F7
:100160000C94C9010C94C9010C94C9010C94C901E7
:100170000C94C9010C94C9010C94C9010C94C901D7
:100180000C94C9010C94C9010C94C9010C94C901C7
:100190000C94C9010C94C9010C94C9010C94C901B7
:1001A0000C94C9010C94C9010C94C9010C94C901A7
:1001B0000C9433230C94C9010C94C9010C94C9010B
:1001C0000C94C9010C94C9010C94C9010C94C90187
:1001D0000C94C9010C94C9010C94C9010C94C90177
:1001E0000C94C9010C94C9010C94C9010C94C90167
:1001F0000C94C9010C94C9010C94C901EA1EEA1EB1
:10020000EA1E711F3D1F6B1FEA1EEA1E711F3D1F74
:100210000C94C6250C946B1F0C94251A0C9459222F
:100220000C94711F0C946C210C94CC1C0C9408073A
:100230000C943D1F0C94EA1E0C9403226E616E0018
:10024000696E660000407A10F35A00A0724E1809D9
:100250000010A5D4E80000E87648170000E40B542D
:10026000020000CA9A3B000000E1F50500008096FC
:100270009800000040420F000000A086010000002E
:10028000102700000000E8030000000064000000E8
:1002900000000A00000000000100000000002C76B1
:1002A000D888DC674F0823DFC1DFAE59E1B1B796CC
:1002B000E5E3E453C63AE651997696E8E6C2842629
:1002C000EB898C9B62ED407C6FFCEFBC9C9F40F205
:1002D000BAA56FA5F490055A2AF75C936B6CF96781
:1002E0006DC11BFCE0E40D47FEF520E6B500D0ED46
:1002F000902E0300943577050080841E08000020AE
:100300004E0A000000C80C333333330F986E12834B
:100310001141EF8D2114893BE65516CFFEE6DB181F
:10032000D1844B381BF77C1D901DA4BBE4242032E4
:1003300084725E228100C9F124ECA1E53D271124DD
:100340001FBECFEFCDBFDFE3DEBF00E00CBFEBE3AE
:10035000FDE28AEA90E48193E030F907E0F30000DF
:1003600010E2A0E0B0E2E0EBFBE600E00BBF02C071
:1003700007900D92A238B107D9F72DE2A2E8B0E2BA
:1003800001C01D92AB33B207E1F70E941C210C940F
:10039000D6350C940000CF93DF93CDB7DEB780EA5B
:1003A00096E020E1FC01228380EA96E020E2FC0155
:1003B000228380EA96E020E4FC01228380EA96E032
:1003C00020E8FC0122830000DF91CF910895CF93B4
:1003D000DF93CDB7DEB780EA96E0FC018085882FF9
:1003E00090E0807199279595879595958795959536
:1003F000879595958795892B89F480918220909196
:10040000832080369A4E20F580918220909183201F
:10041000019680938220909383201AC0809182203D
:10042000909183200B9768F0809182209091832097
:10043000C39718F01092022D07C081E08093022D1F
:1004400003C082E08093022D1092822010928320BC
:1004500080EA96E0FC018085882F90E080729927E1
:100460009595879595958795959587959595879574
:1004700095958795892B89F480918420909185208A
:1004800080369A4E20F580918420909185200196A7
:1004900080938420909385201AC08091842090912D
:1004A00085200B9768F08091842090918520C397D8
:1004B00018F01092032D07C081E08093032D03C034
:1004C00082E08093032D109284201092852080EA90
:1004D00096E0FC018085882F90E080749927082E93
:1004E000892F000C881F990B000C881F991F892BDE
:1004F00089F4809186209091872080369A4E20F54D
:1005000080918620909187200196809386209093F9
:1005100087201AC080918620909187200B9768F0E1
:100520008091862090918720C39718F01092042D17
:1005300007C081E08093042D03C082E08093042DE6
:10054000109286201092872080EA96E0FC01808538
:1005500088238CF0809188209091892080369A4E53
:1005600020F58091882090918920019680938820A1
:10057000909389201AC080918820909189200B97B0
:1005800068F08091882090918920C39718F010928C
:10059000052D07C081E08093052D03C082E0809384
:1005A000052D10928820109289200000DF91CF91B4
:1005B0000895CF93DF931F92CDB7DEB789838981EA
:1005C000882F90E08130910579F0823091051CF4FC
:1005D000892B39F012C08230910549F0039751F010
:1005E0000CC08091022D0AC08091032D07C080911C
:1005F000042D04C08091052D01C082E00F90DF9191
:10060000CF9108950F93CF93DF9300D000D0CDB753
:10061000DEB78C839D836E838FE390E0FC01808145
:100620008B83F8948C819D8189839A838BE390E0FE
:10063000FC01108289819A812E81FC0108ED04BFA2
:1006400020838FE390E02B81FC012083000026961D
:10065000CDBFDEBFDF91CF910F910895CF93DF9390
:1006600000D0CDB7DEB789836A834B8380E590E005
:100670002A81222311F020E201C020E03981322BAF
:100680002B81232BFC01228300002396CDBFDEBFEC
:10069000DF91CF910895CF93DF931F921F92CDB733
:1006A000DEB789836A838A818F718A8380E590E0CF
:1006B00039812A81232BFC01258300000F900F90A4
:1006C000DF91CF910895CF93DF931F921F92CDB703
:1006D000DEB78A8380E590E020E530E0F9012081F3
:1006E000322F2A8120952323FC01208380E590E08E
:1006F000FC0190818A818923898389810F900F90E1
:10070000DF91CF910895CF93DF9300D0CDB7DEB7BF
:100710008A836B839A818B81892B8983698181E4A8
:1007200090E00E94020300002396CDBFDEBFDF9160
:10073000CF910895CF93DF931F921F92CDB7DEB76D
:100740008A8380E490E0FC018081982F987F8A81E1
:10075000892B8983698180E490E00E94020380E410
:1007600090E0FC0190818A818923898389810F909F
:100770000F90DF91CF910895CF93DF9300D0CDB745
:10078000DEB789839A836B8389819A81FC0180819A
:10079000982F907F8B81892B282F89819A81FC014A
:1007A000208300002396CDBFDEBFDF91CF91089557
:1007B000CF93DF9300D0CDB7DEB789839A836B8365
:1007C00089819A81FC018181982F987F8B81892B67
:1007D000282F89819A81FC01218300002396CDBFB7
:1007E000DEBFDF91CF910895CF93DF9300D0CDB7D7
:1007F000DEB789839A836B8389819A81FC01868124
:10080000982F9C7F8B81892B282F89819A81FC01CD
:10081000268300002396CDBFDEBFDF91CF910895E0
:10082000CF93DF9300D01F92CDB7DEB789839A8331
:100830006B837C838BE20E94240400002496CDBF4E
:10084000DEBFDF91CF910895CF93DF931F921F9268
:10085000CDB7DEB78A838A818B3219F481E0898330
:100860000EC08A818C3219F482E0898308C08A81A3
:100870008F3219F483E0898302C084E089830E9467
:10088000470400000F900F90DF91CF910895CF9310
:10089000DF93CDB7DEB7000084E390E028EDFC01E4
:1008A000208388E790E021E0FC0121830000DF91B4
:1008B000CF910895CF93DF931F921F92CDB7DEB7EC
:1008C00080E190E00E94970789839A8389819A81C9
:1008D000892B61F089819A81FC0110821182128238
:1008E000138289819A8104960E94E90789819A81FD
:1008F0000F900F90DF91CF910895CF92DF92EF92FA
:10090000FF920F931F93CF93DF93CDB7DEB76D9711
:10091000CDBFDEBF8A8B9B8B4C8B5D8B6E8B7F8BB1
:10092000288F098FCA8EDB8EEC8EFD8E8A899B897B
:1009300089879A871D821E821F8218861B860E94C5
:100940003E1589859A85FC0180819181A281B381C0
:100950008C879D87AE87BF872C893D894E895F89AB
:100960008C859D85AE85BF85098DBC01CD010E941A
:100970002607888B8889882359F18C859D85AE85CB
:10098000BF8589839A83AB83BC831A8E1B8E1C8E92
:100990001D8E888D882309F465C089859A85FC01A0
:1009A00020813181428153818C899D89AE89BF89A3
:1009B00080959095A095B09582239323A423B52389
:1009C00029853A85F90180839183A283B3834AC044
:1009D0008A8D9B8DAC8DBD8D892B8A2B8B2B59F4E9
:1009E0008C859D85AE85BF8589839A83AB83BC83C7
:1009F00081E08B8737C0888D882349F08D819E8167
:100A0000AF81B885B1608D839E83AF83B887898DB0
:100A1000882349F08D819E81AF81B885B4608D8334
:100A20009E83AF83B8872C893D894E895F898D81EC
:100A30009E81AF81B885822B932BA42BB52B298562
:100A40003A85F90134962A8D3B8D4C8D5D8D890157
:100A50009A01AC01BD01CF010E94111819821A82BE
:100A60001B821C820E944B15898B8A8D9B8DAC8DBD
:100A7000BD8D892B8A2B8B2B09F465C0898988232E
:100A800011F40E94800B0E94CF1ADC01CB018983F4
:100A90009A83AB83BC8389819A81AB81BC8188278F
:100AA0009927AA27B270892B8A2B8B2B09F042C079
:100AB000F091A200FF93F87FF093A20089859A85B8
:100AC000FC0180819181A281B38189839A83AB8368
:100AD000BC832C893D894E895F8989819A81AB814C
:100AE000BC81098DBC01CD010E9426078823E9F055
:100AF000888D8823D1F089859A85FC0120813181F8
:100B0000428153818C899D89AE89BF89809590955A
:100B1000A095B09582239323A423B52329853A85F4
:100B2000F90180839183A283B38381E08B87FF9156
:100B3000F093A20089819A81AB81BC81BB27898314
:100B40009A83AB83BC8389819A81AB81BC81BC01D0
:100B5000CD016D96CDBFDEBFDF91CF911F910F917B
:100B6000FF90EF90DF90CF900895CF93DF93CDB7B4
:100B7000DEB72C97CDBFDEBF8F83988749875A8712
:100B80006B877C878F81988589839A83F091A200F7
:100B9000FF93F87FF093A20089819A81FC01808104
:100BA0009181A281B3818B839C83AD83BE83898134
:100BB0009A81FC01208131814281538189859A8506
:100BC000AB85BC8580959095A095B09582239323A5
:100BD000A423B52329813A81F90180839183A283DB
:100BE000B383FF91F093A2008B819C81AD81BE8184
:100BF000BC01CD012C96CDBFDEBFDF91CF91089512
:100C0000CF93DF93CDB7DEB76D97CDBFDEBF888FB3
:100C1000998F4A8F5B8F6C8F7D8F1B821C821D8208
:100C20001E82888D998D888799871F8288859985EE
:100C300004968A879B878A859B8503968C879D87E8
:100C40000E943E158A859B85FC018781908589835A
:100C50009A8388859985FC01208131814281538165
:100C60008A8D9B8DAC8DBD8D822B932BA42BB52BA8
:100C700028853985F90180839183A283B38395C048
:100C800089819A81FC01848195818E879F878981E2
:100C90009A81FC0180819181A281B381888B998B9B
:100CA000AA8BBB8B1F8288899989AA89BB898827CF
:100CB0009927AA278C8B9D8BAE8BBF8B88899989AE
:100CC000AA89BB89BB27888B998BAA8BBB8B8C8904
:100CD0009D89AE89BF8988279927AA27B470892B57
:100CE0008A2B8B2BB1F488859985FC012081318179
:100CF0004281538188899989AA89BB898223932358
:100D0000A423B523892B8A2B8B2BE9F081E08F83D9
:100D10001AC088859985FC012081318142815381E7
:100D200088899989AA89BB89282339234A235B2387
:100D300088899989AA89BB89281739074A075B07D7
:100D400011F481E08F838F81882359F18C899D89EB
:100D5000AE89BF8988279927AA27B170892B8A2B4A
:100D60008B2B81F02B813C814D815E818889998913
:100D7000AA89BB89822B932BA42BB52B8B839C83B5
:100D8000AD83BE8388859985FC0180819181A28194
:100D9000B381B26029813A81AC01BD01C9010E94D1
:100DA000EC188E859F8589839A8329813A818C8569
:100DB0009D852817390709F063CF88859985FC013F
:100DC00020813181428153818B819C81AD81BE81A3
:100DD00080959095A095B09582239323A423B52365
:100DE00028853985F90180839183A283B3830E948A
:100DF0004B1588859985FC0180819181A281B38101
:100E0000BC01CD016D96CDBFDEBFDF91CF910895BE
:100E1000CF93DF9300D000D0CDB7DEB789839A831C
:100E20004B835C836D837E838B819C81AD81BE818E
:100E300029813A81AC01BD01C9010E940006000070
:100E40002696CDBFDEBFDF91CF9108950F93CF934C
:100E5000DF93CDB7DEB72A97CDBFDEBF6A837B8332
:100E60008C839D832E833F83488759870A87198205
:100E70008A85882399F42A813B814C815D818E810A
:100E80009F81A885B98582239323A423B523892B29
:100E90008A2B8B2BD1F081E0898317C02A813B817B
:100EA0004C815D818E819F81A885B9852823392356
:100EB0004A235B238E819F81A885B985281739072E
:100EC0004A075B0711F481E0898389812A96CDBFA7
:100ED000DEBFDF91CF910F9108950F931F93CF93B2
:100EE000DF93CDB7DEB72997CDBFDEBF8A839B8363
:100EF0004C835D836E837F83288739872885398576
:100F00008C819D81AE81BF816A817B8189019C0139
:100F1000AD0188E097E00E947B2089838981299632
:100F2000CDBFDEBFDF91CF911F910F910895CF9379
:100F3000DF9300D01F92CDB7DEB78B839C831982DD
:100F40001A820E943E152091422C3091432C8B81B5
:100F50009C81820F931F883B9B4018F52091422C67
:100F60003091432C8B819C81280F391F8091422C1A
:100F70009091432C82179307A0F48091422C90917A
:100F8000432C86579F4D89839A832091422C309120
:100F9000432C8B819C81820F931F8093422C9093D2
:100FA000432C0E944B1589819A812496CDBFDEBFC8
:100FB000DF91CF910895CF93DF931F921F92CDB70A
:100FC000DEB789839A8300000F900F90DF91CF9155
:100FD0000895CF93DF931F921F92CDB7DEB7898319
:100FE0009A8389819A819C012D5F3F4F89819A81E3
:100FF000FC012183328329813A818FEF9FEFDC014D
:10100000F90183839483A583B68389819A819C01A6
:101010002D5F3F4F89819A81FC0127833087898129
:101020009A819C012D5F3F4F89819A81FC01218724
:10103000328789819A81FC01108200000F900F9005
:10104000DF91CF910895CF93DF931F921F92CDB779
:10105000DEB789839A8389819A81FC01128613867F
:1010600000000F900F90DF91CF910895CF93DF9301
:1010700000D000D0CDB7DEB78B839C836D837E8399
:101080008B819C81FC018181928189839A838D81EE
:101090009E8129813A81FC012483358389819A814B
:1010A000FC01268137818D819E81FC012683378357
:1010B00089819A81FC01868197812D813E81FC0185
:1010C0002483358389819A812D813E81FC01268389
:1010D00037838D819E812B813C81FC012287338760
:1010E0008B819C81FC01808121E0280F8B819C8178
:1010F000FC01208300002696CDBFDEBFDF91CF919B
:101100000895CF93DF93CDB7DEB72A97CDBFDEBF6B
:101110008F83988769877A8789859A85FC01808182
:101120009181A281B3818B839C83AD83BE838B81AC
:101130009C81AD81BE818F3F9F4FAF4FBF4F41F428
:101140008F819885FC018185928589839A8320C04F
:101150008F819885039689839A8307C089819A81B4
:10116000FC018481958189839A8389819A81FC011C
:1011700084819581FC0120813181428153818B8161
:101180009C81AD81BE8182179307A407B50730F714
:1011900089819A81FC012481358189859A85FC01A8
:1011A0002483358389859A85FC01848195812985ED
:1011B0003A85FC012683378389859A8529813A817E
:1011C000FC012683378389819A8129853A85FC0130
:1011D0002483358389859A852F813885FC01228770
:1011E00033878F819885FC01808121E0280F8F81D2
:1011F0009885FC01208300002A96CDBFDEBFDF91D9
:10120000CF910895CF93DF9300D01F92CDB7DEB773
:101210008B839C838B819C81FC0182859385898350
:101220009A838B819C81FC01848195812B813C81F7
:10123000F90126813781FC01268337838B819C81CC
:10124000FC01868197812B813C81F90124813581C4
:10125000FC012483358389819A81FC0121813281BB
:101260008B819C812817390751F48B819C81FC016B
:101270002681378189819A81FC01218332838B8188
:101280009C81FC011286138689819A81FC018081F0
:101290002FEF280F89819A81FC01208389819A810F
:1012A000FC0180812496CDBFDEBFDF91CF910895F0
:1012B0001F93CF93DF93CDB7DEB780EA90E0FC01B8
:1012C000128180EA90E020EA30E0F9012281287F53
:1012D000FC012283812FDF91CF911F910895CF933D
:1012E000DF93CDB7DEB72A97CDBFDEBF8D839E8358
:1012F0006F83788749875A878D819E8121E1FC0120
:1013000020838D819E8101978D839E838D819E8117
:1013100022E2FC0120838D819E8101978D839E8333
:101320008D819E8123E3FC0120838D819E81019725
:101330008D839E838F819885CC01A0E0B0E0898366
:101340009A83AB83BC8329818D819E81FC0120839C
:101350008D819E8101978D839E8389819A81AB8146
:10136000BC81892F9A2FAB2FBB2789839A83AB83AC
:10137000BC8329818D819E81FC0120838D819E818A
:1013800001978D839E8389819A81AB81BC81892F4E
:101390009A2FAB2FBB2789839A83AB83BC83298188
:1013A0008D819E81FC0120838D819E8101978D839B
:1013B0009E838D819E8121E3FC0120838D819E810E
:1013C00001978D839E838D819E8120E8FC0120837F
:1013D0008D819E8101978D839E838D819E8127E8DB
:1013E000FC0120838D819E8101978D839E838D8159
:1013F0009E81FC0110828D819E8101978D839E8349
:101400008D819E81FC0110828D819E8101978D834B
:101410009E838D819E8122E0FC0120838D819E81AF
:1014200001978D839E838D819E8123E0FC01208323
:101430008D819E8101978D839E838D819E8124E085
:10144000FC0120838D819E8101978D839E838D81F8
:101450009E8125E0FC0120838D819E8101978D83F3
:101460009E838D819E8126E0FC0120838D819E815B
:1014700001978D839E838D819E8127E0FC012083CF
:101480008D819E8101978D839E838D819E8128E031
:10149000FC0120838D819E8101978D839E838D81A8
:1014A0009E8129E0FC0120838D819E8101978D839F
:1014B0009E838D819E8120E1FC0120838D819E8110
:1014C00001978D839E838D819E8121E1FC01208384
:1014D0008D819E8101978D839E838D819E8122E1E6
:1014E000FC0120838D819E8101978D839E838D8158
:1014F0009E8123E1FC0120838D819E8101978D8354
:101500009E838D819E8124E1FC0120838D819E81BB
:1015100001978D839E838D819E8125E1FC0120832F
:101520008D819E8101978D839E838D819E8126E191
:10153000FC0120838D819E8101978D839E838D8107
:101540009E8127E1FC0120838D819E8101978D83FF
:101550009E838D819E8128E1FC0120838D819E8167
:1015600001978D839E838D819E8129E1FC012083DB
:101570008D819E8101978D839E838D819E8120E246
:10158000FC0120838D819E8101978D839E838D81B7
:101590009E8121E2FC0120838D819E8101978D83B4
:1015A0009E838D819E8122E2FC0120838D819E811C
:1015B00001978D839E838D819E8123E2FC01208390
:1015C0008D819E8101978D839E8389859A85CC012B
:1015D000A0E0B0E089839A83AB83BC8329818D81AD
:1015E0009E81FC0120838D819E8101978D839E8346
:1015F00089819A81AB81BC81892F9A2FAB2FBB2720
:1016000089839A83AB83BC8329818D819E81FC0170
:1016100020838D819E8101978D839E838D819E8104
:1016200026E2FC0120838D819E8101978D839E831C
:101630008D819E8127E2FC0120838D819E8101970F
:101640008D839E838D819E8128E2FC0120838D8184
:101650009E8101978D839E838D819E8129E2FC016D
:1016600020838D819E8101978D839E838D819E81B4
:1016700020E3FC0120838D819E8101978D839E83D1
:101680008D819E812A96CDBFDEBFDF91CF910895D7
:10169000CF93DF93CDB7DEB70E948F0CA091442C7F
:1016A000B091452C0D900DBE0D900EBEEF91DF91C7
:1016B000CF91BF91AF919F918F917F916F915F91EA
:1016C0004F913F912F911F910F91FF90EF90DF90DD
:1016D000CF90BF90AF909F908F907F906F905F90D2
:1016E0004F903F902F901F900F90FF91F093A2008A
:1016F000FF91FFBFFF91089581E0DF91CF910895A1
:10170000FF93FFB7FF93F091A200FF93F87FF09350
:10171000A2000F921F9211242F923F924F925F923C
:101720006F927F928F929F92AF92BF92CF92DF92F1
:10173000EF92FF920F931F932F933F934F935F93DB
:101740006F937F938F939F93AF93BF93CF93DF93C9
:10175000EF93A091442CB091452C0DB60D920EB68E
:101760000D920E941917A091442CB091452C0D9018
:101770000DBE0D900EBEEF91DF91CF91BF91AF9155
:101780009F918F917F916F915F914F913F912F9199
:101790001F910F91FF90EF90DF90CF90BF90AF908F
:1017A0009F908F907F906F905F904F903F902F9081
:1017B0001F900F90FF91F093A200FF91FFBFFF9148
:1017C000089500001F93CF93DF931F92CDB7DEB72C
:1017D00089838091062D982F8981892B8093062DEE
:1017E00080EA90E0FC018081813061F080EA90E045
:1017F000FC018081823031F080EA90E0FC01808140
:10180000843079F48091062D882359F00E9458097C
:10181000182F1092062D0E94191780EA90E0FC0103
:10182000128300000F90DF91CF911F9108951F93B5
:10183000CF93DF93CDB7DEB70E945809182F0E94CF
:10184000091680EA90E0FC0112830000DF91CF913D
:101850001F910895FF93FFB7FF93F091A200FF93AC
:10186000F87FF093A2000F921F9211242F923F92C3
:101870004F925F926F927F928F929F92AF92BF92A0
:10188000CF92DF92EF92FF920F931F932F933F938C
:101890004F935F936F937F938F939F93AF93BF9378
:1018A000CF93DF93EF93A091442CB091452C0DB6CC
:1018B0000D920EB60D920E94170C81E00E94E20B71
:1018C000A091442CB091452C0D900DBE0D900EBEF4
:1018D000EF91DF91CF91BF91AF919F918F917F91C8
:1018E0006F915F914F913F912F911F910F91FF90B9
:1018F000EF90DF90CF90BF90AF909F908F907F90B0
:101900006F905F904F903F902F901F900F90FF919E
:10191000F093A200FF91FFBFFF9118950000CF93B5
:10192000DF9300D01F92CDB7DEB780E09DE7A0E047
:10193000B0E089839A83AB83BC8389819A81AB8130
:10194000BC81689415F8B695A795979587951694D8
:10195000D1F789839A83AB83BC8389819A81AB81D8
:10196000BC810197A109B10989839A83AB83BC83A8
:1019700080E098E029813A81FC0126A337A365E045
:1019800080E098E00E94BC0361E080E098E00E9463
:10199000F40300002496CDBFDEBFDF91CF91089500
:1019A000CF93DF93CDB7DEB72597CDBFDEBF8B8357
:1019B0009C836D838B819C8189839A83F091A200A3
:1019C000FF93F87FF093A20089819A81FC018081C6
:1019D000918129813A81F901278D422F50E0298197
:1019E0003A81F90120A1222F30E0429FB001439FAC
:1019F000700D529F700D11249B01280F391F898192
:101A00009A81FC012283338389819A81FC01168E9D
:101A100089819A81FC012081318189819A81FC012F
:101A20002483358389819A81FC0180819181298178
:101A30003A81F901278D222F30E0A9014150510947
:101A400029813A81F90120A1222F30E0429FB00183
:101A5000439F700D529F700D11249B01280F391F59
:101A600089819A81FC012683378389819A812FEFAE
:101A7000FC0121A389819A812FEFFC0122A38D8192
:101A8000882381F489819A81FC0180858823A1F0D3
:101A900089819A8108960E948418882369F00E949F
:101AA000800B0AC089819A8108960E94E907898182
:101AB0009A8143960E94E907FF91F093A20081E08A
:101AC0002596CDBFDEBFDF91CF9108950F931F9371
:101AD000CF93DF93CDB7DEB72997CDBFDEBF8F831E
:101AE000688749878885882319F419821A820FC06C
:101AF0008F81482F50E08885282F30E0429FC00119
:101B0000439F900D529F900D112489839A83898160
:101B10009A8185960E9497078B839C838B819C81F9
:101B2000892B81F08B819C8185968D839E832B816F
:101B30003C818D819E8189012985AC0168858F81D9
:101B40000E94AC0D8B819C812996CDBFDEBFDF91B9
:101B5000CF911F910F9108950F931F93CF93DF9310
:101B6000CDB7DEB72797CDBFDEBF89836A834B83AE
:101B70005C832D830E831F838A81882341F48E81A9
:101B80009F812E813F81FC012083318307C08E819C
:101B90009F812B813C81FC01208331838E819F8139
:101BA0002981FC01278F8E819F812A81FC0120A33E
:101BB0008E819F8161E00E94D00C8E819F812D815A
:101BC000FC0124A300002796CDBFDEBFDF91CF919B
:101BD0001F910F9108950F93CF93DF93CDB7DEB789
:101BE0006297CDBFDEBF8A879B876C877D872E87F4
:101BF0003F87488B598B0A8B19828A859B858A83FC
:101C00009B83F091A200FF93F87FF093A2008A815A
:101C10009B81FC01268D8A819B81FC01878D281781
:101C200018F08A89823019F52C853D858A819B813F
:101C30004A89B9010E94E90F8C838A819B81FC014A
:101C40008389882351F08A819B8143960E9484185E
:101C5000882341F00E94800B05C08C81882311F0FD
:101C60000E94800BFF91F093A20081E06FC08E85EF
:101C70009F85A889B989892B8A2B8B2B29F4FF9101
:101C8000F093A20080E062C08981882331F4CE0104
:101C900005960E944F1981E08983FF91F093A2007D
:101CA0000E943E15F091A200FF93F87FF093A200EE
:101CB0008A819B81FC0181A18F3F21F48A819B81D4
:101CC000FC0111A28A819B81FC0182A18F3F21F43A
:101CD0008A819B81FC0112A2FF91F093A2009E01D8
:101CE000225F3F4FCE010596B9010E9472198823E9
:101CF00031F58A819B810E9474118823C9F08E85F9
:101D00009F85A889B9892A813B81285F3F4FAC0113
:101D1000BD01C9010E94E9178A819B810E94EE10D2
:101D20000E944B15882309F06CCF0E94800B69CF6D
:101D30008A819B810E94EE100E944B1562CF8A819E
:101D40009B810E94EE100E944B1580E06296CDBFF1
:101D5000DEBFDF91CF910F910895CF93DF93CDB781
:101D6000DEB72C97CDBFDEBF8E839F8368877987D0
:101D70004A875B872C878E819F818A839B830E9401
:101D800058098C838A819B81FC01268D8A819B81E5
:101D9000FC01878D281718F08C85823089F58A819F
:101DA0009B81FC0182A18D83288539858A819B8155
:101DB0004C85B9010E94E90F8D818F3FB9F48A816A
:101DC0009B81FC0183898823C1F08A819B81439692
:101DD0000E948418882389F08A859B85892B69F065
:101DE0008A859B8521E0FC01208307C08D818F5F60
:101DF000282F8A819B81FC0122A381E0898301C075
:101E0000198280EA90E02C81FC01228389812C9642
:101E1000CDBFDEBFDF91CF910895CF93DF93CDB7D4
:101E2000DEB76197CDBFDEBF8A879B876C877D87D2
:101E30002E873F87488B598B19828A859B858A8399
:101E40009B83F091A200FF93F87FF093A2008A8118
:101E50009B81FC01868D8C838C81882311F12C85DC
:101E60003D858A819B81B9010E949E108C812FEF54
:101E7000280F8A819B81FC01268F8A819B81FC012E
:101E80008085882349F08A819B8108960E94841866
:101E9000882311F00E94800BFF91F093A20081E053
:101EA00076C08E859F85A889B989892B8A2B8B2B33
:101EB00029F4FF91F093A20080E069C08981882312
:101EC00031F4CE0105960E944F1981E08983FF917C
:101ED000F093A2000E943E15F091A200FF93F87FBC
:101EE000F093A2008A819B81FC0181A18F3F21F4A4
:101EF0008A819B81FC0111A28A819B81FC0182A1C4
:101F00008F3F21F48A819B81FC0112A2FF91F09303
:101F1000A2009E01225F3F4FCE010596B9010E94AB
:101F20007219882331F58A819B810E94531188237D
:101F3000C9F08E859F85A889B9892A813B812D5E4C
:101F40003F4FAC01BD01C9010E94E9178A819B8105
:101F50000E94EE100E944B15882309F072CF0E9458
:101F6000800B6FCF8A819B810E94EE100E944B15DF
:101F700068CF8A819B810E94EE100E944B158A8156
:101F80009B810E945311882309F45BCF80E0619606
:101F9000CDBFDEBFDF91CF910895CF93DF9300D007
:101FA000CDB7DEB78A839B83F091A200FF93F87FC1
:101FB000F093A2008A819B81FC01868D8983FF9129
:101FC000F093A20089812396CDBFDEBFDF91CF9130
:101FD0000895CF93DF93CDB7DEB72797CDBFDEBF90
:101FE0008B839C836D837E834F831A828B819C813C
:101FF000FC01868D89838B819C81FC0180A18823D3
:1020000009F48EC08F818823D9F58B819C81FC01D6
:1020100080A1482F50E08B819C81FC0184819581B7
:102020002D813E81B9010E9467338B819C81FC0127
:10203000248135818B819C81FC0180A1882F90E0D7
:10204000280F391F8B819C81FC01248335838B8170
:102050009C81FC01248135818B819C81FC018281E2
:1020600093812817390708F45BC08B819C81FC01A0
:10207000208131818B819C81FC012483358350C078
:102080008B819C81FC0180A1482F50E08B819C8139
:10209000FC01868197812D813E81B9010E946733C1
:1020A0008B819C81FC01268137818B819C81FC0185
:1020B00080A1882F90E0919581959109280F391F73
:1020C0008B819C81FC01268337838B819C81FC0161
:1020D000268137818B819C81FC0180819181281729
:1020E0003907A8F48B819C81FC01228133818B818B
:1020F0009C81FC0180A1882F90E0919581959109A8
:10210000280F391F8B819C81FC01268337838F81A7
:10211000823031F48981882319F089818150898343
:10212000898121E0280F8B819C81FC01268F8A8187
:102130002796CDBFDEBFDF91CF910895CF93DF9378
:1021400000D01F92CDB7DEB789839A836B837C83DF
:1021500089819A81FC0180A18823C9F189819A81B2
:10216000FC012681378189819A81FC0180A1882F19
:1021700090E0280F391F89819A81FC0126833783DB
:1021800089819A81FC012681378189819A81FC01AC
:10219000828193812817390750F089819A81FC0147
:1021A0002081318189819A81FC012683378389814D
:1021B0009A81FC0180A1482F50E089819A81FC011D
:1021C000268137818B819C81B9010E946733000091
:1021D0002496CDBFDEBFDF91CF910895CF93DF93DB
:1021E00000D01F92CDB7DEB78B839C83F091A20005
:1021F000FF93F87FF093A2008B819C81FC0182A168
:10220000898312C08B819C81FC018389882381F0A2
:102210008B819C8143960E948418882311F00E9430
:102220001A1A898181508983898118165CF301C04B
:1022300000008B819C812FEFFC0122A3FF91F09382
:10224000A200F091A200FF93F87FF093A2008B818F
:102250009C81FC0181A18A8312C08B819C81FC013D
:102260008085882381F08B819C8108960E94841848
:10227000882311F00E941A1A8A8181508A838A81E8
:1022800018165CF301C000008B819C812FEFFC01CC
:1022900021A3FF91F093A20000002496CDBFDEBFE2
:1022A000DF91CF910895CF93DF9300D0CDB7DEB704
:1022B0008A839B83F091A200FF93F87FF093A200A2
:1022C0008A819B81FC01868D882319F481E08983B2
:1022D00001C01982FF91F093A20089812396CDBF9E
:1022E000DEBFDF91CF910895CF93DF9300D0CDB7BC
:1022F000DEB78A839B83F091A200FF93F87FF0936F
:10230000A2008A819B81FC01268D8A819B81FC0130
:10231000878D281719F481E0898301C01982FF9104
:10232000F093A20089812396CDBFDEBFDF91CF91CC
:102330000895CF93DF93CDB7DEB72997CDBFDEBF2A
:102340008B839C834D835E836F83788729878B8102
:102350009C8189839A83F091A200FF93F87FF09388
:10236000A20089819A81FC0181A18F3F21F489819A
:102370009A81FC0111A289819A81FC0182A18F3F7F
:1023800021F489819A81FC0112A2FF91F093A200AD
:1023900089819A81FC01868D882371F489819A81D3
:1023A000FC0173968D819E81AF81B8852985AC0132
:1023B000BD01CF010E94501889819A810E94EE10C0
:1023C00000002996CDBFDEBFDF91CF9108958F9297
:1023D0009F92AF92BF92CF92DF92EF92FF920F93B4
:1023E0001F93CF93DF93CDB7DEB76097CDBFDEBF2E
:1023F0008E839F83688779874A875B872C873D8791
:102400000E87EF86F88A8A859B850E9497078C83C2
:102410009D838C819D81892BB9F08CE290E00E9494
:10242000970789839A8389819A81892B41F08981D1
:102430009A812C813D81FC01238F348F07C08C81D0
:102440009D810E94DB0702C019821A8289819A81CC
:10245000892B09F18A859B85CC01A0E0B0E0098138
:102460001A814F8558892C853D8568857985EE814F
:10247000FF81812C912C58016A01EE8489019C0115
:10248000AD01CF010E945E1289819A810E943413AE
:1024900081E08B8302C08FEF8B838B816096CDBFF1
:1024A000DEBFDF91CF911F910F91FF90EF90DF90F2
:1024B000CF90BF90AF909F908F9008958F929F92F2
:1024C000AF92BF92CF92DF92EF92FF920F931F9342
:1024D000CF93DF93CDB7DEB76497CDBFDEBF8C83DC
:1024E0009D836E837F83288739874A875B870C8724
:1024F0001D87EE86CF86D88AA98ABA8A8B8A9C8A5B
:102500002885398589899A89FC01838D948DA90153
:1025100065EA70E00E94703389899A89FC01238DF5
:10252000348D888599850197820F931F8A839B83B9
:10253000198221C08981882F90E02981222F30E0E3
:102540004E815F81240F351FF901408129893A8925
:10255000820F931F4D96FC0140838981882F90E064
:102560002E813F81820F931FFC018081882339F0E7
:1025700089818F5F898389818830E0F201C0000002
:1025800089899A89FC0114A28E85843010F083E039
:102590008E8789899A892E85FC01228F89899A895B
:1025A00002960E94230889899A890E960E94230820
:1025B00089899A8929893A89FC01228733878E85FE
:1025C000882F90E0A0E0B0E024E030E040E050E070
:1025D00079018A01E81AF90A0A0B1B0BD801C70115
:1025E00029893A89F90186879787A08BB18B8989D8
:1025F0009A8929893A89FC01268B378B89899A899E
:10260000FC0117A210A611A612A689899A89FC01BD
:1026100013A64C855D852C813D818A819B81B90102
:102620000E946F099C0189899A89FC01208331836A
:102630008F859889892B39F08F85988929893A89DE
:10264000FC012083318300006496CDBFDEBFDF91A3
:10265000CF911F910F91FF90EF90DF90CF90BF909F
:10266000AF909F908F900895CF93DF931F921F920A
:10267000CDB7DEB789839A83F091A200FF93F87FEC
:10268000F093A2008091A22C8F5F8093A22C809166
:10269000442C9091452C892B69F489819A818093EF
:1026A000442C9093452C8091A22C8130C9F40E9437
:1026B000381A16C08091A82C882391F48091442C5C
:1026C0009091452CFC01228D89819A81FC01828D9B
:1026D000821730F089819A818093442C9093452C05
:1026E0008091AC2C8F5F8093AC2C2091AC2C898195
:1026F0009A81FC0125A389819A81FC01928D8091A8
:10270000A72C891730F489819A81FC01828D8093EE
:10271000A72C89819A81AC014E5F5F4F89819A8194
:10272000FC01828D282F30E06BE0629FC001639F27
:10273000900D11248A5B934DBA010E943608FF91D7
:10274000F093A2008091A82C882371F08091442CF2
:102750009091452CFC01228D89819A81FC01828D0A
:10276000281710F40E94800B00000F900F90DF914B
:10277000CF910895CF93DF93CDB7DEB72597CDBF27
:10278000DEBF6A837B838C839D8319828A819B81D0
:10279000AC81BD81892B8A2B8B2B71F00E943E1559
:1027A0008A819B81AC81BD8140E0BC01CD010E944A
:1027B000151B0E944B1589838981882311F40E947F
:1027C000800B00002596CDBFDEBFDF91CF9108952D
:1027D000CF93DF9300D01F92CDB7DEB78B839C835E
:1027E000F091A200FF93F87FF093A2008B819C816F
:1027F000892B29F48091442C9091452C02C08B8127
:102800009C8189839A8389819A8102960E94020918
:1028100089819A81FC01808D918D892B29F0898194
:102820009A810E960E94020989819A810296BC01C2
:1028300087E99CE20E94360889819A81FC0183A580
:10284000813021F489819A81FC0113A6FF91F093D4
:10285000A2008091A82C882359F0F091A200FF9348
:10286000F87FF093A2000E947B1AFF91F093A200E0
:102870008091442C9091452C29813A812817390761
:10288000A1F48091A82C882319F00E94800B0DC020
:102890009091972C8091A22C981729F41092442C97
:1028A0001092452C02C00E94191700002496CDBF3B
:1028B000DEBFDF91CF910895CF93DF93CDB7DEB721
:1028C0002597CDBFDEBF8C839D8319828C819D812E
:1028D0008A839B838A819B81FC01848595858759A6
:1028E0009C4289F48A819B81FC01808D918D8C585A
:1028F0009C4249F08A819B81FC01808D918D892BBE
:1029000011F481E0898389812596CDBFDEBFDF91F7
:10291000CF910895CF93DF9300D01F92CDB7DEB74C
:102920008B839C838B819C8189839A8389819A8103
:10293000892B09F450C08091442C9091452C298119
:102940003A812817390709F446C0F091A200FF9395
:10295000F87FF093A20089819A810E945C148823F9
:10296000B9F189819A8102960E94020989819A812E
:10297000FC01928D8091A72C891730F489819A816E
:10298000FC01828D8093A72C89819A81AC014E5FD6
:102990005F4F89819A81FC01828D282F30E06BE0A6
:1029A000629FC001639F900D11248A5B934DBA0111
:1029B0000E94360889819A81FC01228D8091442CE5
:1029C0009091452CFC01828D281710F00E94800BFD
:1029D000FF91F093A20000002496CDBFDEBFDF91EF
:1029E000CF910895EF92FF920F93CF93DF931F92B1
:1029F000CDB7DEB70F2EF1EBEF2EFCE2FF2EF02D60
:102A000000E020E030E048EC50E064E070E285E275
:102A10009AE10E94E71189838981813019F40E942B
:102A2000B61B89838981813009F580EA90E020EA2C
:102A300030E0F9012281287FFC0122838FEF9FEF94
:102A4000DC018093AD2C9093AE2CA093AF2CB0936F
:102A5000B02C81E08093A82C1092A32C1092A42C6F
:102A60001092A52C1092A62C0E94480B00000F90EB
:102A7000DF91CF910F91FF90EF900895CF93DF9367
:102A8000CDB7DEB78091B32C8F5F8093B32C00005D
:102A9000DF91CF910895CF93DF9300D01F92CDB7F0
:102AA000DEB719821A821B82F091A200FF93F87F91
:102AB000F093A2008091B32C81508093B32C80912D
:102AC000B32C882309F074C08091A22C882309F4C8
:102AD0006FC046C08091932C9091942CFC0180850E
:102AE000918589839A8389819A810E960E94020931
:102AF00089819A8102960E94020989819A81FC014A
:102B0000928D8091A72C891730F489819A81FC01DC
:102B1000828D8093A72C89819A81AC014E5F5F4F93
:102B200089819A81FC01828D282F30E06BE0629FC1
:102B3000C001639F900D11248A5B934DBA010E94DE
:102B4000360889819A81FC01228D8091442C9091D4
:102B5000452CFC01828D281718F081E08093AA2C67
:102B600080918C2C882309F0B5CF89819A81892B9B
:102B700011F00E947B1A8091A92C8C838C81882370
:102B800079F00E940916882319F081E08093AA2C1D
:102B90008C8181508C838C81882399F71092A92C89
:102BA0008091AA2C882321F081E08B830E94800BE6
:102BB000FF91F093A2008B812496CDBFDEBFDF9101
:102BC000CF910895CF93DF9300D01F92CDB7DEB79A
:102BD000F091A200FF93F87FF093A2008091A32CC4
:102BE0009091A42CA091A52CB091A62C89839A83B6
:102BF000AB83BC83FF91F093A20089819A81AB8162
:102C0000BC81BC01CD012496CDBFDEBFDF91CF9149
:102C10000895CF93DF93CDB7DEB72D97CDBFDEBF3D
:102C200019828091B32C882309F0F1C08091A32CE4
:102C30009091A42CA091A52CB091A62C0196A11D39
:102C4000B11D8A839B83AC83BD838A819B81AC81C8
:102C5000BD818093A32C9093A42CA093A52CB0931A
:102C6000A62C8A819B81AC81BD81892B8A2B8B2BE1
:102C7000D9F48091882C9091892C8E839F838091A8
:102C80008A2C90918B2C8093882C9093892C8E8108
:102C90009F8180938A2C90938B2C8091AB2C8F5F9B
:102CA0008093AB2C0E947B1A8091AD2C9091AE2C1E
:102CB000A091AF2CB091B02C2A813B814C815D81D9
:102CC000281739074A075B0708F48AC08091882CC7
:102CD0009091892CFC018081882361F48FEF9FEF14
:102CE000DC018093AD2C9093AE2CA093AF2CB093CD
:102CF000B02C76C08091882C9091892CFC01878122
:102D00009085FC018085918588879987888599853C
:102D1000FC0182819381A481B5818A879B87AC87DE
:102D2000BD872A813B814C815D818A859B85AC85ED
:102D3000BD85281739074A075B0768F48A859B8594
:102D4000AC85BD858093AD2C9093AE2CA093AF2C19
:102D5000B093B02C45C08885998502960E940209DF
:102D600088859985FC01808D918D892B29F0888536
:102D700099850E960E94020988859985FC01928D9D
:102D80008091A72C891730F488859985FC01828D64
:102D90008093A72C88859985AC014E5F5F4F88850D
:102DA0009985FC01828D282F30E06BE0629FC00185
:102DB000639F900D11248A5B934DBA010E943608DF
:102DC00088859985FC01228D8091442C9091452C19
:102DD000FC01828D281708F479CF81E0898376CFB2
:102DE0008091442C9091452CFC01828D282F30E05D
:102DF0004BE0429FC001439F900D11248A5B934D8D
:102E0000FC018081823040F081E0898305C080919F
:102E1000A92C8F5F8093A92C8091AA2C882311F074
:102E200081E0898389812D96CDBFDEBFDF91CF916F
:102E30000895CF93DF93CDB7DEB72997CDBFDEBF1F
:102E40008091B32C882321F081E08093AA2CBAC012
:102E50001092AA2C8091442C9091452CFC01838DDA
:102E6000948D8A839B8385EA95EADC018C839D831C
:102E7000AE83BF838A819B81FC01208131814281A5
:102E800053818C819D81AE81BF81281739074A0704
:102E90005B0799F58A819B810496FC012081318131
:102EA000428153818C819D81AE81BF812817390772
:102EB0004A075B0711F58A819B810896FC012081F6
:102EC0003181428153818C819D81AE81BF812817E0
:102ED00039074A075B0789F48A819B810C96FC01BC
:102EE00020813181428153818C819D81AE81BF815E
:102EF000281739074A075B0771F08091442C90919D
:102F0000452C9C01235E3F4F8091442C9091452C91
:102F1000B9010E9410048091A72C898303C0898184
:102F2000815089838981282F30E04BE0429FC00186
:102F3000439F900D11248A5B934DFC01808188236F
:102F400071F38981282F30E04BE0429FC001439FFD
:102F5000900D11248A5B934D888799878885998580
:102F6000FC0181819281FC012481358188859985CC
:102F7000FC012183328388859985FC01218132817E
:102F80008885998503962817390769F48885998576
:102F9000FC0181819281FC0124813581888599859C
:102FA000FC012183328388859985FC01818192818E
:102FB000FC01808591858093442C9093452C8981D8
:102FC0008093A72C00002996CDBFDEBFDF91CF9163
:102FD0000895CF93DF9300D000D0CDB7DEB78983BB
:102FE0009A834B835C836D837E838091442C909184
:102FF000452C9C01225F3F4F89819A81B9010E9433
:1030000081088B819C81AD81BE8141E0BC01CD01F5
:103010000E94151B00002696CDBFDEBFDF91CF9129
:1030200008950F931F93CF93DF93CDB7DEB72A9701
:10303000CDBFDEBF89839A834B835C836D837E83A0
:103040000F83188729873A872091442C3091452C8B
:103050008B819C81AD81BE81B068F901868797879D
:10306000A08BB18B8091442C9091452C9C01225FC8
:103070003F4F89819A81B9010E9436088F819885D6
:10308000A985BA8541E0BC01CD010E94151B000055
:103090002A96CDBFDEBFDF91CF911F910F9108958A
:1030A000CF93DF93CDB7DEB72797CDBFDEBF898340
:1030B0009A834B835C836D837E832F838091442C22
:1030C0009091452C9C01225F3F4F89819A81B901E3
:1030D0000E9436088F81882339F08FEF9FEFDC0143
:1030E0008B839C83AD83BE838B819C81AD81BE81AC
:1030F0004F81BC01CD010E94151B00002796CDBF5A
:10310000DEBFDF91CF910895CF93DF93CDB7DEB7C8
:103110002597CDBFDEBF8C839D838C819D81FC0173
:1031200087819085FC01808591858A839B838A8134
:103130009B810E960E9402098091B32C882351F541
:103140008A819B8102960E9402098A819B81FC01EF
:10315000928D8091A72C891730F48A819B81FC0184
:10316000828D8093A72C8A819B81AC014E5F5F4F3B
:103170008A819B81FC01828D282F30E06BE0629F69
:10318000C001639F900D11248A5B934DBA010E9488
:10319000360808C08A819B810E96BC018CE89CE2AF
:1031A0000E9436088A819B81FC01228D8091442CEB
:1031B0009091452CFC01828D821730F481E0898347
:1031C00081E08093AA2C01C0198289812596CDBF08
:1031D000DEBFDF91CF910895CF93DF93CDB7DEB7F8
:1031E0002897CDBFDEBF8B839C834D835E836F8327
:1031F00078878D819E81AF81B885B0682B813C81B5
:10320000F90180839183A283B3838B819C81FC012C
:103210008085918589839A838B819C810E94020994
:1032200089819A8102960E94020989819A81FC0112
:10323000928D8091A72C891730F489819A81FC01A5
:10324000828D8093A72C89819A81AC014E5F5F4F5C
:1032500089819A81FC01828D282F30E06BE0629F8A
:10326000C001639F900D11248A5B934DBA010E94A7
:10327000360889819A81FC01228D8091442C90919D
:10328000452CFC01828D821718F481E08093AA2CD2
:1032900000002896CDBFDEBFDF91CF910895CF9378
:1032A000DF931F921F92CDB7DEB789839A83209157
:1032B000AB2C89819A81FC0120838091A32C909171
:1032C000A42CA091A52CB091A62C29813A81F901BA
:1032D00081839283A383B48300000F900F90DF91CA
:1032E000CF910895EF92FF920F931F93CF93DF93A7
:1032F000CDB7DEB72D97CDBFDEBF8A879B876C87A2
:103300007D87F091A200FF93F87FF093A200809157
:10331000A32C9091A42CA091A52CB091A62C8A83CB
:103320009B83AC83BD838A859B85FC0181819281CF
:10333000A381B4812A813B814C815D8179018A011D
:10334000E81AF90A0A0B1B0BD801C7018E839F8369
:10335000A887B9878C859D85FC0180819181A28198
:10336000B3818F3F9F4FAF4FBF4F11F4198254C0AD
:103370008A859B85FC0190818091AB2C981799F0F0
:103380008A859B85FC0121813281438154818A8118
:103390009B81AC81BD8182179307A407B50718F004
:1033A00081E0898339C08C859D85FC012081318134
:1033B000428153818E819F81A885B98582179307A9
:1033C000A407B50700F58C859D85FC01208131811E
:1033D000428153818E819F81A885B98579018A01B7
:1033E000E81AF90A0A0B1B0BD801C7012C853D8589
:1033F000F90180839183A283B3838A859B850E9490
:103400004F19198209C08C859D85FC01108211829B
:103410001282138281E08983FF91F093A200898157
:103420002D96CDBFDEBFDF91CF911F910F91FF9001
:10343000EF900895CF93DF93CDB7DEB781E080930F
:10344000AA2C0000DF91CF910895CF93DF931F92B4
:103450001F92CDB7DEB789839A830E94731A809139
:10346000462C823010F00E94800B0E941421F5CF70
:10347000CF93DF931F92CDB7DEB7198210C0898139
:10348000282F30E04BE0429FC001439F900D112454
:103490008A5B934D0E94E90789818F5F89838981C7
:1034A000843068F382E79CE20E94E9078DE79CE2A2
:1034B0000E94E9078CE89CE20E94E90787E99CE208
:1034C0000E94E90782E79CE28093882C9093892CE4
:1034D0008DE79CE280938A2C90938B2C00000F90B8
:1034E000DF91CF910895CF93DF93CDB7DEB7000082
:1034F000DF91CF910895CF93DF931F921F92CDB7A5
:10350000DEB78091882C9091892CFC0180818823E2
:1035100061F48FEF9FEFDC018093AD2C9093AE2C84
:10352000A093AF2CB093B02C1BC08091882C9091AD
:10353000892CFC0187819085FC0180859185898398
:103540009A8389819A81FC0182819381A481B581CA
:103550008093AD2C9093AE2CA093AF2CB093B02C55
:1035600000000F900F90DF91CF910895CF93DF93DC
:103570001F92CDB7DEB78091A82C882319F481E083
:10358000898308C08091B32C882319F482E0898351
:1035900001C0198289810F90DF91CF910895EF9238
:1035A000FF920F931F93CF93DF9300D01F92CDB75D
:1035B000DEB78091442C9091452CFC01868597853F
:1035C000A089B18989839A83AB83BC836091442CA1
:1035D0007091452C8091442C9091452CFC01828D5A
:1035E000882F90E0A0E0B0E024E030E040E050E040
:1035F00079018A01E81AF90A0A0B1B0BD801C701E5
:10360000FB0186879787A08BB18B89819A81AB81DB
:10361000BC81BC01CD012496CDBFDEBFDF91CF912F
:103620001F910F91FF90EF900895CF93DF93CDB747
:10363000DEB72D97CDBFDEBF69877A878B879C87E2
:103640004D878091A32C9091A42CA091A52CB09192
:10365000A62C89839A83AB83BC838091442C909160
:10366000452C02960E94020989859A85AB85BC8506
:103670008F3F9F4FAF4FBF4F71F48D85882359F017
:103680008091442C9091452C0296BC0187E99CE2E4
:103690000E94360864C029813A814B815C8189850A
:1036A0009A85AB85BC85820F931FA41FB51F8D83A0
:1036B0009E83AF83B8872091442C3091452C8D8117
:1036C0009E81AF81B885F90182839383A483B583FA
:1036D0002D813E814F81588589819A81AB81BC8142
:1036E000281739074A075B0778F48091442C90919A
:1036F000452C9C012E5F3F4F80918A2C90918B2C02
:10370000B9010E9481082BC08091442C9091452CD6
:103710009C012E5F3F4F8091882C9091892CB9019C
:103720000E9481088091AD2C9091AE2CA091AF2C7D
:10373000B091B02C2D813E814F81588528173907D3
:103740004A075B0760F48D819E81AF81B8858093C5
:10375000AD2C9093AE2CA093AF2CB093B02C000066
:103760002D96CDBFDEBFDF91CF910895EF92FF92EE
:103770000F93CF93DF931F92CDB7DEB719820E94CC
:1037800047208091CE2C9091CF2C892B91F00F2E39
:10379000F0EDEF2EFCE2FF2EF02D03E020E030E014
:1037A00048EC50E069E070E28CEC9CE10E94E7118B
:1037B000898389810F90DF91CF910F91FF90EF90D6
:1037C0000895CF92DF92EF92FF920F931F93CF93C2
:1037D000DF93CDB7DEB76797CDBFDEBF8B879C8702
:1037E0006D872E873F87488B598B0A8B1B8BCC8A22
:1037F000DD8AEE8AFF8A19828091CE2C9091CF2C9F
:10380000892B09F444C08D858A838E859F85A8897C
:10381000B9898B839C83AD83BE838B859C858F8385
:1038200098878D85863034F50E94B61A823099F4D7
:10383000E091CE2CF091CF2C8C899D89AE89BF89E7
:10384000BE016E5F7F4F00E09C01AD01CF010E9481
:10385000EB0D89831CC08091CE2C9091CF2CBE01A2
:103860006E5F7F4F00E020E030E0A9010E94EB0D89
:1038700089830DC08091CE2C9091CF2C4A895B8991
:10388000BE016E5F7F4F20E00E94AD0E898389816B
:103890006796CDBFDEBFDF91CF911F910F91FF9053
:1038A000EF90DF90CF900895CF92DF92EF92FF924A
:1038B0000F931F93CF93DF93CDB7DEB72B97CDBF79
:1038C000DEBF6C837D838E839F83288739874A87F9
:1038D0005B878091CA2C9091CB2CFC0187819085CD
:1038E000FC018085918589839A8389819A810296DA
:1038F0000E94020989819A81FC0182898130B1F597
:1039000089819A81FC0126853785408951898C817E
:103910009D81AE81BF81820F931FA41FB51FEC80D4
:10392000FD800E811F81288539854A855B85E98167
:10393000FA816701780189019A01AC01BD01CF01CB
:103940000E94EA1D882391F08C819D81AE81BF8108
:10395000E981FA81C12CD12C760100E010E09C01B4
:10396000AD0160E0CF010E94E11B8B8389819A81C8
:10397000FC012589368989819A81F9011995000010
:103980002B96CDBFDEBFDF91CF911F910F91FF909E
:10399000EF90DF90CF900895CF93DF93CDB7DEB750
:1039A0002797CDBFDEBF8E839F83CE0105960E94F1
:1039B000671DDC01CB0189839A83AB83BC832D8196
:1039C00089819A81AB81BC81422FBC01CD010E94CB
:1039D000EC1C0E94831EE9CFEF92FF920F931F937E
:1039E000CF93DF93CDB7DEB72A97CDBFDEBF6E830F
:1039F0007F83888799874A870E943E15CE01059666
:103A00000E94A51DDC01CB0189839A83AB83BC8313
:103A10008D81882309F04EC08A858823E1F42E81A8
:103A20003F814885598589819A81AB81BC81821704
:103A30009307A407B50778F00E944B1529813A81B6
:103A40004B815C818E819F81A885B985BC01CD01A8
:103A50000E94541C31C08A85882359F08091CC2C57
:103A60009091CD2CFC01908181E0992309F080E0B8
:103A70008A872E813F814885598589819A81AB81CA
:103A8000BC8179018A01E81AF90A0A0B1B0BD801DB
:103A9000C701E091CE2CF091CF2C2A85AC01BD015D
:103AA000CF010E9499110E944B15882329F40E948E
:103AB000800B02C00E944B1500002A96CDBFDEBFCE
:103AC000DF91CF911F910F91FF90EF900895CF93C9
:103AD000DF9300D000D0CDB7DEB78D839E83809179
:103AE000CA2C9091CB2CFC01908181E0992309F0A4
:103AF00080E0282F8D819E81FC0120838D819E8115
:103B0000FC018081882389F48091CA2C9091CB2C70
:103B1000FC0187819085FC0180819181A281B38124
:103B200089839A83AB83BC8304C019821A821B8267
:103B30001C8289819A81AB81BC81BC01CD01269612
:103B4000CDBFDEBFDF91CF910895CF93DF9300D03B
:103B500000D0CDB7DEB78D839E830E94E215DC01D5
:103B6000CB0189839A83AB83BC838091D22C9091C3
:103B7000D32CA091D42CB091D52C29813A814B81A2
:103B80005C81281739074A075B0740F40E948D1FA4
:103B90008D819E8121E0FC01208304C08D819E8166
:103BA000FC01108289819A81AB81BC818093D22CE7
:103BB0009093D32CA093D42CB093D52C89819A8147
:103BC000AB81BC81BC01CD012696CDBFDEBFDF91AC
:103BD000CF910895CF92DF92EF92FF920F931F93B0
:103BE000CF93DF93CDB7DEB72F97CDBFDEBF8A83EC
:103BF0009B834C835D836E837F83088719872A8725
:103C00003B87CC86DD86EE86FF8619822A813B8142
:103C10008C819D81AE81BF81F90182839383A483CE
:103C2000B5838A819B812A813B81FC01228733876E
:103C30002C813D814E815F8188859985AA85BB85D0
:103C400082179307A407B50740F1288539854A856F
:103C50005B858C859D85AE85BF85281B390B4A0BFE
:103C60005B0B8A819B81FC0186859785A089B18940
:103C7000281739074A075B0718F081E0898336C0A7
:103C80008A819B819C012E5F3F4F8091CC2C90912B
:103C9000CD2CB9010E94810829C0288539854A8523
:103CA0005B858C859D85AE85BF85281739074A07BA
:103CB0005B0780F42C813D814E815F818C859D85E1
:103CC000AE85BF85281739074A075B0718F081E0E2
:103CD00089830CC08A819B819C012E5F3F4F80911C
:103CE000CA2C9091CB2CB9010E94810889812F9612
:103CF000CDBFDEBFDF91CF911F910F91FF90EF906D
:103D0000DF90CF900895CF92DF92EF92FF920F93C2
:103D10001F93CF93DF93CDB7DEB76597CDBFDEBFDF
:103D2000E0C08A858823FCF4CE010A960196898337
:103D30009A8389819A81FC012081318189819A81CC
:103D4000FC0184819581A681B78149815A81FA015C
:103D50000280F381E02DEC8BFD8BAC01BD018C89E1
:103D60009D89F90119958A8588230CF4BAC08F853D
:103D700098898B839C838B819C81FC0184859585AC
:103D8000892B29F08B819C8102960E940209CE0129
:103D900043960E94A51DDC01CB018D839E83AF83DA
:103DA000B8878A85082E000C990B092E000CAA0BE7
:103DB000BB0B40E050E029E030E0841B950B281756
:103DC000390708F48DC0FC018827E250FF4F8F4F60
:103DD0000C945C32EB84FC840D851E852B853C8520
:103DE0004D855E858B819C81FC0186859785A089A8
:103DF000B189820F931FA41FB51F2D813E814F8172
:103E00005885EB81FC816701780189019A01AC0139
:103E1000BD01CF010E94EA1D882309F462C08B8195
:103E20009C81FC01258936898B819C81F90119953A
:103E30008B819C81FC018289813009F052C02B85E5
:103E40003C854D855E858B819C81FC0186859785AF
:103E5000A089B189820F931FA41FB51FEB81FC813C
:103E6000C12CD12C760100E010E09C01AD0160E096
:103E7000CF010E94E11B898734C08B859C85AD856D
:103E8000BE852B813C81F90186879787A08BB18BFA
:103E90008B819C81FC0126853785408951898D81E4
:103EA0009E81AF81B885820F931FA41FB51FED803F
:103EB000FE800F8118852D813E814F815885EB81D1
:103EC000FC816701780189019A01AC01BD01CF0134
:103ED0000E94EA1D06C08B819C810E94DB0701C005
:103EE00000008091CE2C9091CF2CBE01665F7F4F59
:103EF00020E030E0A9010E940D0F882309F011CFC6
:103F000000006596CDBFDEBFDF91CF911F910F916D
:103F1000FF90EF90DF90CF900895CF92DF92EF92D5
:103F2000FF920F931F93CF93DF93CDB7DEB72D97FB
:103F3000CDBFDEBF82C08091CA2C9091CB2CFC01FA
:103F400087819085FC0180819181A281B3818983E1
:103F50009A83AB83BC838091CA2C9091CB2CFC01BB
:103F600087819085FC01808591858D839E838D81DD
:103F70009E8102960E9402098D819E81FC01258905
:103F800036898D819E81F90119958D819E81FC0173
:103F90008289813009F051C08D819E81FC01268586
:103FA00037854089518989819A81AB81BC81820F93
:103FB000931FA41FB51F8F839887A987BA872F8166
:103FC000388549855A8589819A81AB81BC81821760
:103FD0009307A407B507F8F42D813E818F8198855A
:103FE000A985BA85F90182839383A483B5838D81E2
:103FF0009E812D813E81FC01228733878D819E81A8
:104000009C012E5F3F4F8091CA2C9091CB2CB9011F
:104010000E94810812C089819A81AB81BC81ED81A7
:10402000FE81C12CD12C760100E010E09C01AD0195
:1040300060E0CF010E94E11B8B878091CA2C909198
:10404000CB2CFC018081882309F075CF8091CA2C8C
:104050009091CB2C8C879D878091CC2C9091CD2CEE
:104060008093CA2C9093CB2C8C859D858093CC2CEF
:104070009093CD2C00002D96CDBFDEBFDF91CF9168
:104080001F910F91FF90EF90DF90CF900895CF9305
:10409000DF93CDB7DEB7F091A200FF93F87FF093E6
:1040A000A2008091CE2C9091CF2C892BE9F484EB47
:1040B0009CE20E94E9078FEB9CE20E94E90784EBF7
:1040C0009CE28093CA2C9093CB2C8FEB9CE2809344
:1040D000CC2C9093CD2C40E069E085E00E94660DE9
:1040E0008093CE2C9093CF2CFF91F093A2000000F0
:1040F000DF91CF9108950F931F93CF93DF93CDB7A7
:10410000DEB76497CDBFDEBF8B879C876D877E87C8
:104110002F87388B498B5A8B0B8B1C8B8EEF8A83A6
:104120008B859C858B839C838D859E858D839E83CB
:104130008F859889A989BA898F839887A987BA8733
:104140008091CE2C9091CF2C4B895C89BE016E5F03
:104150007F4F20E00E94AD0E898389816496CDBF98
:10416000DEBFDF91CF911F910F910895CF93DF9321
:10417000CDB7DEB780E590E020E530E0F9012081A1
:104180002160FC01208380E590E0FC018181882F83
:1041900090E081709927892BB1F380E00E949A0307
:1041A0008EE10E94630360E080E00E94830343E0AD
:1041B00060E080E40E942E0380E590E020E530E09E
:1041C000F90120812860FC01208380E590E0FC015A
:1041D0008181882F90E088709927892BB1F364E062
:1041E00080EC0E944B0380E590E020E530E0F9018F
:1041F00020812061FC01208360E080E00E94830335
:1042000080E590E0FC018181882F90E08071992702
:10421000892BB1F384E00E949A0387E00E94630334
:104220000000DF91CF910895CF93DF93CDB7DEB734
:104230000000DF91CF910895EF92FF920F93CF93FB
:10424000DF93CDB7DEB70E945A048093072D909379
:10425000082D0F2EF3E3EF2EFDE2FF2EF02D01E0EF
:1042600020E030E048EC50E061E170E28CE691E261
:104270000E94E7110F2EF5E3EF2EFDE2FF2EF02D49
:1042800001E020E030E048EC50E06FE170E289E5C9
:1042900092E20E94E7110F2EFDE1EF2EFDE2FF2ECC
:1042A000F02D01E020E030E048EC50E06FE270E2F9
:1042B00083E092E20E94E7110E94B6200E94C82487
:1042C0000E9413270E94F21480E090E0DF91CF91CA
:1042D0000F91FF90EF9008950F931F93CF93DF936B
:1042E0001F921F92CDB7DEB789839A8364EF71E086
:1042F00080E090E00E94BA1381E490E2892F8F93CE
:1043000081E490E28F931F921F921F921F920E944E
:1043100025270F900F900F900F900F900F90809186
:10432000D62C9091D72CA091D82CB091D92C0FE1FC
:104330001DE220E041E0BC01CD010E9464328FE12A
:104340009DE2892F8F938FE19DE28F9385E590E227
:10435000892F8F9385E590E28F931F921F921F9272
:1043600081E08F930E9425278DB79EB70896CDBF19
:10437000DEBF84E690E2892F8F9384E690E28F93EC
:104380001F921F921F9282E08F930E9425270F9009
:104390000F900F900F900F900F90809100209091B0
:1043A0000120A0910220B091032020E030E040E8FD
:1043B00050E4BC01CD010E944F2EDC01CB0109E08D
:1043C0001DE227E041E0BC01CD010E94643289E09A
:1043D0009DE2892F8F9389E09DE28F938FE690E293
:1043E000892F8F938FE690E28F931F928BE08F93AC
:1043F0001F9282E08F930E9425278DB79EB7089663
:10440000CDBFDEBF73CFCF93DF931F921F92CDB787
:10441000DEB789839A830E94CB010E94E70180E086
:104420000E94D902882359F48091072D9091082D7C
:1044300041E050E060E070E00E940006EECF81E0D5
:104440000E94D902882339F48091352D9091362D20
:104450000E94E813E2CF82E00E94D902882339F457
:104460008091352D9091362D0E948A14D6CF83E00D
:104470000E94D902882389F68091352D9091362D9E
:104480000E94E8130E9413271092D62C1092D72C6A
:104490001092D82C1092D92C80E090E0A0E8BFE3D5
:1044A0008093002090930120A0930220B0930320DA
:1044B000B4CFCF92DF92EF92FF920F93CF93DF931F
:1044C0001F921F92CDB7DEB789839A838091072D03
:1044D0009091082DCC24CA94DC2C760100E020E0D9
:1044E00041E050E060E070E00E947D041092D62C24
:1044F0001092D72C1092D82C1092D92CA0C0C0901A
:104500000020D0900120E0900220F09003208091C4
:10451000D62C9091D72CA091D82CB091D92C20E0FA
:1045200030E040E850E4BC01CD010E944F2EDC0198
:10453000CB0120E030E040E450E4BC01CD010E941A
:104540007F2CDC01CB019C01AD0160E070E080E8D4
:104550009FE30E94F02CDC01CB019C01AD01C7015F
:10456000B6010E947E2CDC01CB016C017D018091A3
:10457000D62C9091D72CA091D82CB091D92C20E09A
:1045800030E040E850E4BC01CD010E944F2EDC0138
:10459000CB0120E030E040EA50E4BC01CD010E94B4
:1045A0007F2CDC01CB019C01AD0160E070E080E874
:1045B0009FE30E94F02CDC01CB019C01AD01C701FF
:1045C000B6010E947F2CDC01CB01809300209093E8
:1045D0000120A0930220B09303208091D62C9091CB
:1045E000D72CA091D82CB091D92C20E836E948E1FD
:1045F0005BE4BC01CD010E94EB2C882331F4809157
:10460000352D9091362D0E94E8138091D62C9091F3
:10461000D72CA091D82CB091D92C20E030E040E8E4
:104620005FE3BC01CD010E947F2CDC01CB018093B4
:10463000D62C9093D72CA093D82CB093D92C8091C2
:10464000D62C9091D72CA091D82CB091D92C20E8C1
:1046500036E948E15BE4BC01CD010E94EB2C181661
:104660000CF04DCF33CF1F920F9200903F000F926E
:10467000112400903B000F922F933F934F935F9331
:104680006F937F938F939F93AF93BF93EF93FF931A
:10469000CF93DF931F92CDB7DEB719828091392D6A
:1046A00090913A2D9E012F5F3F4F41E050E060E036
:1046B00070E00E946D0760E080E09BE00E94BC0318
:1046C00080E09BE0FC01168200000F90DF91CF910B
:1046D000FF91EF91BF91AF919F918F917F916F91DA
:1046E0005F914F913F912F910F9000923B000F905F
:1046F00000923F000F901F901895CF92DF92EF929B
:10470000FF920F93CF93DF9300D01F92CDB7DEB708
:1047100069837A838B839C8389819A81AB81BC81F5
:104720000297A105B10540F482E090E0A0E0B0E07E
:1047300089839A83AB83BC8380E09BE021E0FC010A
:10474000268380E09BE0FC0110A211A260E080E0E3
:104750009BE00E94D80389819A81AB81BC818E3F06
:104760009F4FA105B10598F420E03BE089819A8133
:10477000AB81BC81B695A79597958795F90186A3DE
:1047800097A365E080E09BE00E94BC031FC0898185
:104790009A81AB81BC8180349244AF40B105B0F4C2
:1047A00020E03BE089819A81AB81BC81689414F858
:1047B000B695A795979587951694D1F7F90186A395
:1047C00097A367E080E09BE00E94BC038091392DB5
:1047D00090913A2D0F2EF4EFCF2EDD24D394E12CBF
:1047E000F12CF02D00E021E041E050E060E070E0CD
:1047F0000E947D0400002496CDBFDEBFDF91CF91E3
:104800000F91FF90EF90DF90CF900895CF93DF93BB
:104810001F92CDB7DEB7898389818F7089838981A3
:104820008295807F898380E096E020E036E0F90180
:10483000348129812F602323FC01248380E096E0CA
:1048400020E036E0F90134812981232BFC01248307
:1048500000000F90DF91CF910895CF93DF931F92C7
:10486000CDB7DEB789838981882331F080E696E071
:1048700021E0FC01258305C080E696E021E0FC01F3
:10488000268300000F90DF91CF910895CF93DF939F
:104890001F92CDB7DEB789838981882331F080E606
:1048A00096E022E0FC01258305C080E696E022E048
:1048B000FC01268300000F90DF91CF910895CF93E4
:1048C000DF931F92CDB7DEB789838981882331F0CA
:1048D00080E696E024E0FC01258305C080E696E0B2
:1048E00024E0FC01268300000F90DF91CF91089512
:1048F000CF93DF93CDB7DEB781E00E945F2461E004
:1049000070E080E090E00E947D2380E00E945F24C0
:104910000000DF91CF910895CF93DF931F92CDB721
:10492000DEB78983898182958F700E94062480E09A
:104930000E942D2480E00E9446240E9478248981D0
:104940008F700E9406240E94782400000F90DF914F
:10495000CF910895CF93DF931F92CDB7DEB78983B0
:10496000898182958F700E94062481E00E942D2407
:1049700080E00E9446240E94782489818F700E94E2
:1049800006240E94782400000F90DF91CF910895B3
:10499000EF92FF920F93CF93DF93CDB7DEB780E016
:1049A00096E020E1FC01218380E096E020E2FC011A
:1049B000218380E096E020E4FC01218380E096E002
:1049C00020E8FC01218380E696E021E0FC012183C0
:1049D00080E696E022E0FC01218380E696E024E078
:1049E000FC01218380E096E020E036E0F90124819B
:1049F0002F70FC01248380E696E020E636E0F90182
:104A00002481287FFC01248340E066E188E00E9445
:104A1000660D8093372D9093382D0E945A04809311
:104A2000392D90933A2DE12CF12C02E020E030E07A
:104A30004EE551E062E770E286EC95E20E94E711F4
:104A40000000DF91CF910F91FF90EF900895CF93E9
:104A5000DF9300D01F92CDB7DEB789839A836B8333
:104A60007C8389819A818130910589F0823091051A
:104A70001CF4892B39F01AC08230910569F0039734
:104A800081F014C08B8180580E948C240FC08B81D0
:104A900080540E948C240AC08B818C560E948C24E6
:104AA00005C08B818C520E948C24000067E270E06C
:104AB00080E090E00E947D2300002496CDBFDEBF01
:104AC000DF91CF910895CF93DF931F92CDB7DEB7DB
:104AD000898389810E94AA246BE270E080E090E0E3
:104AE0000E947D2300000F90DF91CF910895CF9316
:104AF000DF9300D01F92CDB7DEB78B839C831982E2
:104B00001A8219C089819A812B813C81820F931F5F
:104B1000FC0180818823A1F089819A812B813C81CD
:104B2000820F931FFC0180810E94632589819A81F5
:104B3000019689839A8389819A8144971CF301C0E5
:104B4000000000002496CDBFDEBFDF91CF91089515
:104B5000CF93DF9300D000D0CDB7DEB789839A839F
:104B60006B837C834D835E832B813C8189819A8119
:104B7000B9010E9427258D819E810E947725000022
:104B80002696CDBFDEBFDF91CF910895CF93DF93FF
:104B9000CDB7DEB7C057D109CDBFDEBF9E012159C9
:104BA0003F4FF9018083918319821A821B821C82F4
:104BB0001D821E8226C01F8218861AC02D813E814A
:104BC00044E1429FC001439F900D11249E012F5F3D
:104BD0003F4F280F391F8F819885820F931F0896AA
:104BE00020E2FC0120838F81988501968F8398872E
:104BF0008F819885449714F38D819E8101968D83D2
:104C00009E838D819E810497B4F260E47CE980E00C
:104C100090E00E947D2383E00E94062468E873E10F
:104C200080E090E00E947D230E94782460EA70E09A
:104C300080E090E00E947D230E94782460EA70E08A
:104C400080E090E00E947D230E94782460EA70E07A
:104C500080E090E00E947D2382E00E9406240E9472
:104C6000782488E20E948C2480E10E948C248CE0CD
:104C70000E948C2486E00E948C2468EC70E080E026
:104C800090E00E94BA138091392D90913A2D40E026
:104C900050E0BA010E94B505DC01CB01892B8A2BBB
:104CA0008B2B09F496C08091392D90913A2D42E0DA
:104CB00050E060E070E00E94B50519821A8226C0BB
:104CC0001B821C821AC029813A8144E1429FC001A3
:104CD000439F900D11249E012F5F3F4F280F391FD6
:104CE0008B819C81820F931F089620E2FC01208318
:104CF0008B819C8101968B839C838B819C814497C3
:104D000014F389819A81019689839A8389819A8192
:104D10000497B4F25EC08091372D9091382DBE017A
:104D2000675A7F4F2FEF3FEFA9010E940D0F882395
:104D300009F44FC019821A8232C0CE01875A9F4FA0
:104D4000FC018081482F50E0CE01875A9F4FFC0123
:104D50008181282F30E089819A81820F931FBE01C3
:104D6000675A7F4F29813A81260F371F2E5F3F4FA9
:104D7000F901608174E1749F9001759F300D1124D9
:104D8000AE014F5F5F4F240F351F820F931F0896B0
:104D9000FC01608389819A81019689839A83CE017F
:104DA000875A9F4FFC018181282F30E089819A81A9
:104DB000820F931F44976CF49E01275A3F4F8981BD
:104DC0009A81820F931F0296FC018081882309F04B
:104DD000B4CF8091372D9091382D0E94CD0F88232C
:104DE00009F099CF19821A8219C09E01275F3F4F9F
:104DF00049815A8164E1649FC001659F900D11242F
:104E0000280F391F89819A81A90160E070E00E9412
:104E1000A82589819A81019689839A8389819A81BB
:104E200004971CF32ACFCF93DF93CDB7DEB78091E1
:104E3000392D90913A2D42E050E060E070E00E9400
:104E400000060000DF91CF910895CF93DF931F926A
:104E50001F92CDB7DEB7CE010E9689839A83298142
:104E60003A814C855D856A857B85888599850E9418
:104E70003F2700000F900F90DF91CF9108950F937F
:104E8000CF93DF93CDB7DEB7EC97CDBFDEBF8DAB51
:104E90009EAB6FAB78AF49AF5AAF2BAF3CAF198227
:104EA0001A821B821C820BC08B819C818652934D7F
:104EB000FC0110828B819C8101968B839C838B816A
:104EC0009C8144978CF31D821E820BC08D819E8134
:104ED0008251934DFC0110828D819E8101968D83BC
:104EE0009E838D819E8144978CF3BEC18D898532CE
:104EF00009F0A0C189AD9AAD9C012F5F3F4F29AF4A
:104F00003AAFFC0180818D8B8D89882F90E08536AA
:104F1000910509F446C18636910554F4833691050E
:104F200001F1843691050CF070C0859769F09CC141
:104F30008337910571F18837910509F4A8C0863649
:104F4000910509F4E6C090C189819A818251934DFF
:104F500025E2FC01208389819A81019689839A83C5
:104F600083C18BAD9CAD9C012E5F3F4F2BAF3CAFFF
:104F7000FC01808191818E8B89819A818251934D30
:104F80002E89FC01208389819A81019689839A83E5
:104F90006BC18BAD9CAD9C012E5F3F4F2BAF3CAFE7
:104FA000FC01808191818F8B988F1F82188617C09A
:104FB00029813A818F819885820F931F2F813885AF
:104FC0004F89588D240F351FF90120818251934D4F
:104FD000FC0120838F81988501968F8398878F8924
:104FE000988D0E9477339C018F8198858217930753
:104FF000F8F28F89988D0E9477339C0189819A817C
:10500000820F931F89839A832FC18BAD9CAD9C0126
:105010002E5F3F4F2BAF3CAFFC0180819181898F88
:105020009A8F898D9A8D4AE050E06AED7CE20E9469
:105030008B3319861A8615C029813A8189859A850C
:10504000820F931F29853A852652334DF90120811D
:105050008251934DFC01208389859A850196898729
:105060009A878AED9CE20E9477339C0189859A8514
:105070008217930708F38AED9CE20E9477339C0124
:1050800089819A81820F931F89839A83EDC08BADAA
:105090009CAD9C012E5F3F4F2BAF3CAFFC0180814C
:1050A0009181898F9A8F898D9A8D40E150E06AEDC8
:1050B0007CE20E948B331B861C8615C029813A81B5
:1050C0008B859C85820F931F2B853C852652334D03
:1050D000F90120818251934DFC0120838B859C85B1
:1050E00001968B879C878AED9CE20E9477339C0116
:1050F0008B859C858217930708F38AED9CE20E94BA
:1051000077339C0189819A81820F931F89839A83C7
:10511000ABC08BAD9CAD9C012C5F3F4F2BAF3CAF28
:10512000FC0180819181A281B3818B8F9C8FAD8F97
:10513000BE8F8B8D9C8DAD8DBE8DAC01BD018AED7A
:105140009CE20E940E2A1D861E8615C029813A8186
:105150008D859E85820F931F2D853E852652334D6A
:10516000F90120818251934DFC0120838D859E851C
:1051700001968D879E878AED9CE20E9477339C0181
:105180008D859E858217930708F38AED9CE20E9425
:1051900077339C0189819A81820F931F89839A8337
:1051A00063C08BAD9CAD9C012C5F3F4F2BAF3CAFE0
:1051B000FC0180819181A281B3818B8F9C8FAD8F07
:1051C000BE8F8B8D9C8DAD8DBE8DAC01BD018AEDEA
:1051D0009CE20E945D2B1F86188A15C029813A81A6
:1051E0008F859889820F931F2F8538892652334DDA
:1051F000F90120818251934DFC0120838F8598898C
:1052000001968F87988B8AED9CE20E9477339C01F0
:105210008F8598898217930708F38AED9CE20E9494
:1052200077339C0189819A81820F931F89839A83A6
:1052300000001AC089819A818251934D2D89FC0109
:10524000208389819A818251934DFC0180818A302B
:1052500031F489819A818251934DFC0110828981B8
:105260009A81019689839A8389AD9AAD9C012F5FBB
:105270003F4F29AF3AAFFC0180818D8B8D89882308
:1052800009F034CE29813A818FA998AD820F931FFE
:10529000449754F024E130E08FA998ADA901481B50
:1052A000590BCA0189839A83198A1A8A0EC09E01F2
:1052B0002F5D3F4F89899A89820F931FFC011082CD
:1052C00089899A890196898B9A8B89899A894497C9
:1052D00074F38DA98F8F8FA988A31B8A1C8A14C091
:1052E0008B899C898251934DFC0140819E012F5DE9
:1052F0003F4F8B899C89820F931FFC0140838B89D0
:105300009C8901968B8B9C8B2B893C8989819A8106
:10531000281739072CF38091372D9091382DBE0135
:10532000615E7F4F00E02FEF3FEFA9010E94EB0D80
:1053300089819A81EC96CDBFDEBFDF91CF910F912D
:105340000895CF93DF93CDB7DEB72897CDBFDEBFEB
:105350008F83988719821A828F819885FC018081BA
:105360009181A281B3818B839C83AD83BE8315C061
:1053700020E030E040E251E46B817C818D819E81B0
:105380000E94F02CDC01CB018B839C83AD83BE8318
:1053900089819A81019689839A8320E030E040E8F0
:1053A0005FE36B817C818D819E810E944A2E8823E0
:1053B000FCF615C020E030E040E251E46B817C81D6
:1053C0008D819E810E944F2EDC01CB018B839C83BB
:1053D000AD83BE8389819A81019789839A832DEC5D
:1053E0003CEC4CEC5DE36B817C818D819E810E9465
:1053F000EB2C8823FCF22F8138858B819C81AD8139
:10540000BE81F90180839183A283B38389819A81CC
:105410002896CDBFDEBFDF91CF910895CF92DF9266
:10542000EF92FF92CF93DF93CDB7DEB72E97CDBF2C
:10543000DEBF89879A874B875C876D877E87198255
:105440001A821B821C828B859C85AD85BE8520E0DF
:1054500030E0A901BC01CD010E94EB2C882359F456
:1054600089859A8520E3FC01208389859A850196A8
:10547000FC01108218C18B859C85AD85BE8520E01E
:1054800030E0A901BC01CD010E94EB2C88239CF4E3
:1054900089859A859C012F5F3F4F29873A872DE2A6
:1054A000FC0120838B859C85AD85BE85B0588B879C
:1054B0009C87AD87BE87CE010B960E94A129898368
:1054C0009A8353C08B859C85AD85BE8520E030E0F6
:1054D00040E251E4BC01CD010E944F2EDC01CB0122
:1054E000BC01CD010E94622DDC01CB018D839E8326
:1054F00089859A859C012F5F3F4F29873A872D81A7
:10550000205DFC0120838B859C85AD85BE8520E0D8
:1055100030E040E251E4BC01CD010E944F2EDC019D
:10552000CB016C017D018D819E81092E000CAA0B9F
:10553000BB0BBC01CD010E949A2DDC01CB019C016B
:10554000AD01C701B6010E947E2CDC01CB018B8727
:105550009C87AD87BE878B819C8101968B839C83C2
:1055600089819A81019789839A8389819A81181602
:1055700019060CF4A7CF8B819C81892B51F4898566
:105580009A859C012F5F3F4F29873A8720E3FC01D2
:10559000208389859A859C012F5F3F4F29873A8711
:1055A0002EE2FC01208314C089859A859C012F5F1F
:1055B0003F4F29873A8720E3FC01208389819A8124
:1055C000019789839A838B819C8101968B839C832D
:1055D00089819A8199230CF058C080917D20909107
:1055E0007E202B813C8128173907F4F24EC08B8531
:1055F0009C85AD85BE8520E030E040E251E4BC01F1
:10560000CD010E944F2EDC01CB01BC01CD010E94D7
:10561000622DDC01CB018F83988789859A859C0157
:105620002F5F3F4F29873A872F81205DFC01208320
:105630008B859C85AD85BE8520E030E040E251E45D
:10564000BC01CD010E944F2EDC01CB016C017D011C
:105650008F819885092E000CAA0BBB0BBC01CD01D4
:105660000E949A2DDC01CB019C01AD01C701B6015E
:105670000E947E2CDC01CB018B879C87AD87BE8787
:105680008B819C8101968B839C8380917D2090915E
:105690007E202B813C81281739070CF4A8CF8985FF
:1056A0009A85FC0110822E96CDBFDEBFDF91CF918F
:1056B000FF90EF90DF90CF900895CF92DF92EF921E
:1056C000FF92CF93DF93CDB7DEB72E97CDBFDEBF6E
:1056D00089879A874B875C876D877E871B821C82B0
:1056E0008B859C85AD85BE8520E030E0A901BC019D
:1056F000CD010E94EB2C882359F489859A8520E3FB
:10570000FC01208389859A850196FC011082ECC0FA
:105710008B859C85AD85BE8520E030E0A901BC016C
:10572000CD010E94EB2C88239CF489859A859C01ED
:105730002F5F3F4F29873A872DE2FC0120838B851D
:105740009C85AD85BE85B0588B879C87AD87BE870D
:10575000CE010B960E94A1298B839C838B859C850F
:10576000AD85BE8520E030E040E251E4BC01CD01D2
:105770000E944F2EDC01CB01BC01CD010E94622DA5
:10578000DC01CB018D839E8389859A859C012F5FE7
:105790003F4F29873A872D81205DFC0120838B852F
:1057A0009C85AD85BE8520E030E040E251E4BC013F
:1057B000CD010E944F2EDC01CB016C017D018D815A
:1057C0009E81092E000CAA0BBB0BBC01CD010E94CF
:1057D0009A2DDC01CB019C01AD01C701B6010E94ED
:1057E0007E2CDC01CB018B879C87AD87BE878B81AC
:1057F0009C8101978B839C8389859A859C012F5F6F
:105800003F4F29873A872EE2FC01208319821A82B2
:105810004EC08B859C85AD85BE8520E030E040E2A2
:1058200051E4BC01CD010E944F2EDC01CB01BC0133
:10583000CD010E94622DDC01CB018F839887898581
:105840009A859C012F5F3F4F29873A872F81205DE2
:10585000FC0120838B859C85AD85BE8520E030E0F2
:1058600040E251E4BC01CD010E944F2EDC01CB018E
:105870006C017D018F819885092E000CAA0BBB0B52
:10588000BC01CD010E949A2DDC01CB019C01AD0130
:10589000C701B6010E947E2CDC01CB018B879C875F
:1058A000AD87BE8789819A81019689839A83809189
:1058B0007F209091802029813A81281739070CF4A4
:1058C000A8CF89859A859C012F5F3F4F29873A870A
:1058D00025E6FC01208329853A858B819C814AE05D
:1058E00050E0B9010E948B332E96CDBFDEBFDF9111
:1058F000CF91FF90EF90DF90CF9008955058BB2745
:10590000AA270E94962C0C94102E0E94022E38F08A
:105910000E94092E20F039F49F3F19F426F40C94CC
:10592000FF2D0EF4E095E7FB0C94F92DE92F0E9472
:10593000212E58F3BA17620773078407950720F0E2
:1059400079F4A6F50C94432E0EF4E0950B2EBA2FA5
:10595000A02D0B01B90190010C01CA01A001112475
:10596000FF27591B99F0593F50F4503E68F11A1621
:10597000F040A22F232F342F4427585FF3CF4695B2
:1059800037952795A795F0405395C9F77EF41F16D4
:10599000BA0B620B730B840BBAF09150A1F0FF0F9E
:1059A000BB1F661F771F881FC2F70EC0BA0F621F8A
:1059B000731F841F48F4879577956795B795F7957A
:1059C0009E3F08F0B0CF9395880F08F09927EE0F0F
:1059D0009795879508950E94D52D08F481E0089544
:1059E0000E94042D0C94102E0E94092E58F00E9443
:1059F000022E40F029F45F3F29F00C94F92D51114B
:105A00000C94442E0C94FF2D0E94212E68F39923B0
:105A1000B1F3552391F3951B550BBB27AA276217AA
:105A20007307840738F09F5F5F4F220F331F441FB7
:105A3000AA1FA9F335D00E2E3AF0E0E832D09150EB
:105A40005040E695001CCAF72BD0FE2F29D0660FD8
:105A5000771F881FBB1F261737074807AB07B0E81B
:105A600009F0BB0B802DBF01FF2793585F4F3AF021
:105A70009E3F510578F00C94F92D0C94442E5F3F15
:105A8000E4F3983ED4F3869577956795B795F795A7
:105A90009F5FC9F7880F911D9695879597F908958F
:105AA000E1E0660F771F881FBB1F6217730784072B
:105AB000BA0720F0621B730B840BBA0BEE1F88F73A
:105AC000E09508950E94692D6894B1110C94442EBC
:105AD00008950E94292E88F09F5798F0B92F992792
