:100000000C949D010C94C6010C94C6010C94C6017D
:100010000C94C6010C94C6010C94C6010C94C60144
:100020000C94C6010C94C6010C94C6010C94C60134
:100030000C94C6010C94C6010C94DA050C94C6010C
:100040000C94C6010C94C6010C94C6010C94C60114
:100050000C94C6010C94C6010C94C6010C94C60104
:100060000C94C6010C94C6010C94C6010C94C601F4
:100070000C94C6010C94C6010C94C6010C94C601E4
:100080000C94C6010C94C6010C94C6010C94C601D4
:100090000C94C6010C94C6010C94C6010C94C601C4
:1000A0000C94C6010C94C6010C94C6010C94C601B4
:1000B0000C94C6010C94C6010C94C6010C94C601A4
:1000C0000C94C6010C94C6010C94C6010C94C60194
:1000D0000C94C6010C94C6010C94C6010C94C60184
:1000E0000C94C6010C94C6010C94C6010C94C60174
:1000F0000C94C6010C94C6010C94C6010C94C60164
:100100000C94C6010C94C6010C94C6010C94C60153
:100110000C94C6010C94C6010C94C6010C94C60143
:100120000C94C6010C94C6010C94C6010C94C60133
:100130000C94C6010C94C6010C94C6010C94C60123
:100140000C94C6010C94C6010C94C6010C94C60113
:100150000C94C6010C94C6010C94C6010C94C60103
:100160000C94C6010C94C6010C94C6010C94C601F3
:100170000C94C6010C94C6010C94C6010C94C601E3
:100180000C94C6010C94C6010C94C6010C94C601D3
:100190000C94C6010C94C6010C94C6010C94C601C3
:1001A0000C94C6010C94C6010C94C6010C94C601B3
:1001B0000C942B130C94C6010C94C6010C94C6012C
:1001C0000C94C6010C94C6010C94C6010C94C60193
:1001D0000C94C6010C94C6010C94C6010C94C60183
:1001E0000C94C6010C94C6010C94C6010C94C60173
:1001F0000C94C6010C94C6010C94C6012211221164
:1002000022116F1157116C11221122116F11571108
:100210000C943C120C946F110C94C5030C94CA14EA
:100220000C9466100C9457110C946C110C942211C0
:100230000C94F3110C94EF096E616E00696E660008
:1002400000407A10F35A00A0724E18090010A5D48D
:10025000E80000E87648170000E40B54020000CAEA
:100260009A3B000000E1F505000080969800000030
:1002700040420F000000A08601000000102700008F
:100280000000E803000000006400000000000A0015
:10029000000000000100000000002C76D888DC6718
:1002A0004F0823DFC1DFAE59E1B1B796E5E3E45370
:1002B000C63AE651997696E8E6C28426EB898C9B8D
:1002C00062ED407C6FFCEFBC9C9F40F2BAA56FA52D
:1002D000F490055A2AF75C936B6CF9676DC11BFCAF
:1002E000E0E40D47FEF520E6B500D0ED902E0300CA
:1002F000943577050080841E080000204E0A000017
:1003000000C80C333333330F986E12831141EF8DD5
:100310002114893BE65516CFFEE6DB18D1844B3815
:100320001BF77C1D901DA4BBE424203284725E2246
:100330008100C9F124ECA1E53D2711241FBECFEFB8
:10034000CDBFDFE3DEBF00E00CBFE1E4FDE28AEAFF
:1003500090E48193E030F907E0F310E2A0E0B0E22E
:10036000ECEDF2E400E00BBF02C007900D92A8365E
:10037000B107D9F72DE2A8E6B0E201C01D92A13481
:10038000B207E1F70E94ED120C946C210C9400006E
:10039000E0EAF6E080E1828380E2828380E4828387
:1003A00080E8828308950F93CF93DF931F92CDB798
:1003B000DEB72FB72983F8941BBEFC0108ED04BFFC
:1003C000608389818FBF0F90DF91CF910F91089546
:1003D000611102C090E001C090E2842B892B8093D0
:1003E000520008956F71862B809355000895E0E5C3
:1003F000F0E09081282F209592239083908189238B
:100400000895682B81E490E00E94D30108950F9332
:100410001F93CF93C82F00E410E0F8016081687F3C
:10042000682B80E490E00E94D301F80180818C2346
:10043000CF911F910F910895FC019081907F692BBE
:1004400060830895FC019181987F692B61830895F1
:10045000FC0196819C7F692B66830895000088EDDE
:1004600084BF81E08093790008950E942E02089550
:10047000CF93DF9380E190E00E94D503EC010097D9
:1004800041F0FC011192119211921192CF010E9440
:10049000FC03CE01DF91CF9108952F923F924F92AE
:1004A0005F926F927F928F929F92AF92BF92CF9204
:1004B000DF92EF92FF920F931F93CF93DF93EC01A4
:1004C0004A015B01622E702E0E94490B2880398000
:1004D0004A805B8001110DC081E0B201A101482179
:1004E00059216A217B21452B462B472B79F480E04B
:1004F0000DC081E0B201A101482159216A217B216F
:10050000481559056A057B0509F080E0882381F0CC
:10051000662009F470C080949094A094B0948220D6
:100520009320A420B52088829982AA82BB8263C0CE
:10053000C114D104E104F10409F45DC0662029F07E
:1005400040E050E060E071E003C040E050E0BA01FC
:1005500071107460482959296A297B2997018601FD
:10056000CE0104960E94780D0E94340C811102C0C5
:100570000E945A050E94B50E91FD39C0F091A2006B
:10058000FF93F87FF093A200688179818A819B8133
:1005900071100DC021E075016401C622D722E82246
:1005A000F922CD28CE28CF2879F420E00DC021E013
:1005B00075016401C622D722E822F922C814D904A1
:1005C000EA04FB0409F020E0222371F0662061F0C8
:1005D00080949094A094B09486229722A822B92265
:1005E00088829982AA82BB82FF91F093A2001B01AC
:1005F0002C01552402C00E94340CC201B101DF91CC
:10060000CF911F910F91FF90EF90DF90CF90BF900F
:10061000AF909F908F907F906F905F904F903F90A2
:100620002F9008950F931F93F091A200FF93F87FEE
:10063000F093A200FC010081118122813381409559
:100640005095609570954023512362237323408316
:10065000518362837383FF91F093A200C901B801B3
:100660001F910F9108954F925F926F927F92AF9278
:10067000BF92CF92DF92EF92FF920F931F93CF938F
:10068000DF93EC016A017B018C01095F1F4F0E941F
:10069000490BEB85FC8588819981AA81BB81C82A99
:1006A000D92AEA2AFB2AC882D982EA82FB820E175B
:1006B0001F0709F442C0C12CD12C7601A480B5805B
:1006C00080819181A281B381AC01BD017727B2FD08
:1006D0000FC0488059806A807B8044225522662260
:1006E000772221E045284628472889F420E00FC0DA
:1006F000488059806A807B80442255226622772276
:1007000021E0441655066606770609F020E022230C
:1007100071F0B0FF04C0C42AD52AE62AF72A48811E
:1007200059816A817B817260CF010E94000EEA2D9F
:10073000FB2D0E171F0711F603C0C12CD12C76011B
:10074000C094D094E094F09488819981AA81BB816F
:10075000C822D922EA22FB22C882D982EA82FB82FD
:100760000E94340C688179818A819B81DF91CF91CD
:100770001F910F91FF90EF90DF90CF90BF90AF90BF
:100780007F906F905F904F9008950E94330308957B
:100790000F931F9389019A01AB01BC0185EC93E093
:1007A0000E9495111F910F910895CF93DF93EC0153
:1007B0000E94490B2091682030916920C9018C0F5B
:1007C0009D1F883B4BE0940758F42817390758F4CD
:1007D000E901C659DF4D809368209093692005C0D8
:1007E000C0E0D0E002C0C0E0D0E00E94340CCE01F6
:1007F000DF91CF9108950895FC0103968183928340
:100800004FEF5FEFBA014383548365837683878319
:1008100090878187928710820895FC011286138643
:100820000895CF93DF939C01FB01DC011196CD91DC
:10083000DC911297C483D5838E819F8186839783B1
:100840008E819F81DC0114966D937C9315976E8346
:100850007F8322873387F90180818F5F8083DF91D7
:10086000CF9108950F931F93CF93DF93EB010881EE
:1008700019812A813B810F3F4FEF1407240734076A
:1008800021F4FC01A185B28511C0DC01139601C0E1
:10089000DF011496ED91FC911597408151816281A1
:1008A0007381041715072607370790F71496ED9103
:1008B000FC911597EC83FD83C683D783AE83BF83FA
:1008C0001496CD93DC9315978A879B87FC01208132
:1008D0002F5F2083DF91CF911F910F910895CF93C8
:1008E000DF93FC01A285B385C481D5818681978180
:1008F0008E839F83C681D781848195818C839D83DC
:1009000011968D919C911297E817F90731F4868121
:10091000978111968D939C931297128613868C91D2
:1009200081508C938C91DF91CF910895E0EAF0E0B3
:1009300082819281987F92830895CF92DF92EF9285
:10094000FF9231E1FC013083319722E2208331971D
:10095000A3E3A0836B01E12CF12C319760833197E5
:10096000D0823197E082319761E36083319760E80C
:100970006083319767E860833197108231971082E6
:10098000319762E06083319763E06083319764E080
:100990006083319765E06083319766E060833197CB
:1009A00067E06083319768E06083319769E0608336
:1009B000319760E1608331973083319732E1308342
:1009C000319733E13083319734E13083319735E12A
:1009D0003083319736E13083319737E13083319777
:1009E00038E13083319739E13083319730E2308319
:1009F000319731E2308331972083319723E220838E
:100A00006A01319740833197D082319726E2208363
:100A1000319727E22083319728E22083319729E21A
:100A20002083319720E320838897FF90EF90DF9019
:100A3000CF90089583EF91E0809326089093270844
:100A400065E080E098E00E941C0261E080E098E0B0
:100A50000E942802A091902CB091912C0D900DBE77
:100A60000D900EBEEF91DF91CF91BF91AF919F910D
:100A70008F917F916F915F914F913F912F911F9136
:100A80000F91FF90EF90DF90CF90BF90AF909F902D
:100A90008F907F906F905F904F903F902F901F901E
:100AA0000F90FF91F093A200FF91FFBFFF91089577
:100AB00081E00895FF93FFB7FF93F091A200FF93A9
:100AC000F87FF093A2000F921F9211242F923F9271
:100AD0004F925F926F927F928F929F92AF92BF924E
:100AE000CF92DF92EF92FF920F931F932F933F933A
:100AF0004F935F936F937F938F939F93AF93BF9326
:100B0000CF93DF93EF93A091902CB091912C0DB6E1
:100B10000D920EB60D920E94D20CA091902CB09125
:100B2000912C0D900DBE0D900EBEEF91DF91CF91E7
:100B3000BF91AF919F918F917F916F915F914F91F5
:100B40003F912F911F910F91FF90EF90DF90CF90E9
:100B5000BF90AF909F908F907F906F905F904F90DD
:100B60003F902F901F900F90FF91F093A200FF9164
:100B7000FFBFFF910895CF939091E42C892B809330
:100B8000E42C9091A000913041F09091A00092301F
:100B900021F09091A000943059F4882349F00E94EC
:100BA0009604C82F1092E42C0E94D20CC093A2008D
:100BB000CF910895FF93FFB7FF93F091A200FF93A9
:100BC000F87FF093A2000F921F9211242F923F9270
:100BD0004F925F926F927F928F929F92AF92BF924D
:100BE000CF92DF92EF92FF920F931F932F933F9339
:100BF0004F935F936F937F938F939F93AF93BF9325
:100C0000CF93DF93EF93A091902CB091912C0DB6E0
:100C10000D920EB60D920E949604C82F0E94610B91
:100C2000C093A20081E00E94BB05A091902CB091DE
:100C3000912C0D900DBE0D900EBEEF91DF91CF91D6
:100C4000BF91AF919F918F917F916F915F914F91E4
:100C50003F912F911F910F91FF90EF90DF90CF90D8
:100C6000BF90AF909F908F907F906F905F904F90CC
:100C70003F902F901F900F90FF91F093A200FF9153
:100C8000FFBFFF911895F091A200FF93F87FF093BA
:100C9000A200FC01968DFF91F093A20081E09111DA
:100CA00080E00895DC01F091A200FF93F87FF093BB
:100CB000A2005E969C915E97FF91F093A20081E066
:100CC0005F962C91291380E008950F931F93CF9383
:100CD000DF93EC01042F1E8D48A14423B9F10111CB
:100CE00016C050E08C819D810E94822028A18C81B9
:100CF0009D81820F911D8C839D832A813B81821768
:100D0000930720F1888199818C839D831FC050E0D7
:100D10008E819F810E94822088A190E0919581958B
:100D200091092E813F81280F391F2E833F834881EF
:100D300059812417350730F42A813B81820F931F94
:100D40008E839F83023011F4111111501F5F1E8F8B
:100D500080E0DF91CF911F910F910895FC0140A198
:100D60004423A9F050E026813781240F351F2683C4
:100D70003783828193812817390720F08081918100
:100D800086839783CB01668177810E9482200895B4
:100D9000EF92FF920F931F93CF938C01F091A200DB
:100DA000FF93F87FF093A200FC01C2A11C16ACF4E3
:100DB0008389811106C011C0F8018389811105C0A2
:100DC0000CC07801F3E1EF0EF11CC7010E94BE0DCB
:100DD00081110E94A30EC15079F78FEFF80182A311
:100DE000FF91F093A200F091A200FF93F87FF0939F
:100DF000A200F801C1A11C16ACF48085811106C0C7
:100E000011C0F8018085811105C00CC07801F8E09F
:100E1000EF0EF11CC7010E94BE0D81110E94A30EAE
:100E2000C15079F78FEFF80181A3FF91F093A200F1
:100E3000CF911F910F91FF90EF900895CF93DF9383
:100E4000EC01F091A200FF93F87FF093A20048819B
:100E5000598128A130E07F8D729FC001739F900D52
:100E60001124FA01E80FF91FEA83FB831E8E4C83DD
:100E70005D83821B930B840F951F8E839F838FEF5F
:100E800089A38AA361110CC08885882389F0CE01CB
:100E900008960E94BE0D882359F00E945A0508C08A
:100EA000CE0108960E94FC03CE0143960E94FC03EB
:100EB000FF91F093A20081E0DF91CF910895FF921E
:100EC0000F931F93CF93DF93082F162FF42E6623D3
:100ED000C9F0869FC001112485960E94D503EC01BC
:100EE000009749F416C00F8F18A361E0CE010E944D
:100EF0001E07FCA20EC0859688839983F4CFC88311
:100F0000D983F1CF85E290E00E94D503EC01892BD3
:100F1000B1F7CE01DF91CF911F910F91FF9008950E
:100F2000AF92BF92CF92DF92EF92FF920F931F93F7
:100F3000CF93DF93CDB7DEB72997CDBFDEBF7C015E
:100F40005B012E833F834887598710E06C0188E05E
:100F5000C80ED11CF091A200FF93F87FF093A2007D
:100F6000F701968D878D981710F00230D1F4402F3D
:100F7000B501C7010E946506F7019389992349F0DD
:100F8000C70143960E94BE0D882331F00E945A0586
:100F900003C081110E945A05FF91F093A20081E0E5
:100FA00057C08E819F81A885B985892B8A2B8B2B71
:100FB00029F4FF91F093A20080E04AC0111105C00E
:100FC000CE0101960E94340E11E0FF91F093A20031
:100FD0000E94490BF091A200FF93F87FF093A200CA
:100FE000F70181A18F3F09F411A2F70182A18F3F80
:100FF00009F412A2FF91F093A200BE016A5F7F4F35
:10100000CE0101960E94450E81111CC0C7010E94AD
:101010005206882389F04E815F8168857985C601F3
:101020000E94600DC7010E94C8060E94340C811105
:1010300091CF0E945A058ECFC7010E94C8060E9418
:10104000340C88CFC7010E94C8060E94340C80E08F
:101050002996CDBFDEBFDF91CF911F910F91FF90F9
:10106000EF90DF90CF90BF90AF900895AF92BF9276
:10107000CF92DF92FF920F931F93CF93DF93EC01F8
:101080006B015A01022F0E949604F82E9E8D8F8DBF
:10109000981710F00230E1F41AA1402FB601CE01EA
:1010A0000E9465061F3F81F48B89882399F0CE0149
:1010B00043960E94BE0D882379F0A114B10471F00B
:1010C00081E0F50180830BC01F5F1AA381E007C098
:1010D00080E005C081E003C081E001C081E0F092C2
:1010E000A200DF91CF911F910F91FF90DF90CF90E1
:1010F000BF90AF900895AF92BF92CF92DF92EF92E0
:10110000FF920F931F93CF93DF93CDB7DEB729974D
:10111000CDBFDEBF8C015B012E833F83488759879B
:10112000E12C6C0183E1C80ED11CF091A200FF9369
:10113000F87FF093A200F801F68CFF20B1F0B50122
:10114000C8010E94AE06FA94F801F68E80858823C5
:1011500039F0C80108960E94BE0D81110E945A05FF
:10116000FF91F093A20081E05EC08E819F81A885EF
:10117000B985892B8A2B8B2B29F4FF91F093A20040
:1011800080E051C0E11006C0CE0101960E94340EED
:10119000EE24E394FF91F093A2000E94490BF0919A
:1011A000A200FF93F87FF093A200F80181A18F3F86
:1011B00009F411A2F80182A18F3F09F412A2FF9154
:1011C000F093A200BE016A5F7F4FCE0101960E949C
:1011D000450E81111CC0C8010E944306882389F076
:1011E0004E815F8168857985C6010E94600DC801C6
:1011F0000E94C8060E94340C811197CF0E945A05A4
:1012000094CFC8010E94C8060E94340C8ECFC8013A
:101210000E94C8060E94340CC8010E94430688231D
:1012200009F483CF80E02996CDBFDEBFDF91CF9157
:101230001F910F91FF90EF90DF90CF90BF90AF90F4
:101240000895F091A200FF93F87FF093A200FC01B3
:10125000868DFF91F093A2000895CF93DF93EC0168
:10126000F091A200FF93F87FF093A20089A18F3F35
:1012700009F419A28AA18F3F09F41AA2FF91F093F1
:10128000A2008E8D811104C0CE0143960E949D0D57
:10129000CE010E94C806DF91CF910895E0914C2CB9
:1012A000F0914D2C808181110CC08FEF9FEFDC01FC
:1012B0008093252C9093262CA093272CB093282C38
:1012C0000895E0914C2CF0914D2C0780F085E02D95
:1012D0000084F185E02D82819381A481B581809382
:1012E000252C9093262CA093272CB093282C08957E
:1012F0008F929F92AF92BF92CF92DF92EF92FF9226
:10130000CF936B017C01C42F80902F2C9090302CB8
:10131000A090312CB090322C8091902C9091912CF7
:1013200002960E946F048FEFC816D806E806F806EA
:1013300069F4CC2359F06091902C7091912C6E5FE0
:101340007F4F84E39CE20E9411043FC0C80CD91C6B
:10135000EA1CFB1CE091902CF091912CC282D3826C
:10136000E482F582C814D904EA04FB0468F46091AD
:10137000902C7091912C80914A2C90914B2C6E5F07
:101380007F4F0E94320421C06091902C7091912C6B
:1013900080914C2C90914D2C6E5F7F4F0E943204B7
:1013A0008091252C9091262CA091272CB091282C4F
:1013B000C816D906EA06FB0640F4C092252CD09246
:1013C000262CE092272CF092282CCF91FF90EF90C2
:1013D000DF90CF90BF90AF909F908F900895C4E61C
:1013E000DCE28881823010F00E945A050E94EC12E3
:1013F000F8CF4F925F926F927F928F929F92AF92AF
:10140000BF92CF92DF92EF92FF920F93CF93DF9331
:101410004C016B015A012901CA010E94D5033C010C
:10142000892B09F4EAC08CE290E00E94D503EC011C
:10143000892BB1F06B8E7C8EA50165EA70E0C3014B
:101440000E948B2021E0A21AB1088B8D9C8DA80EE2
:10145000B91ED6018C918D8F8C91811105C018C059
:10146000C3010E94FB03C9C0AE01425E5F4FF6019B
:101470003196B8E0CB0ED11CCF012191DA012D932A
:10148000AD01DC018C91882319F0EC15FD05A1F765
:101490001CA2043008F003E00A8F6E01B2E0CB0E0C
:1014A000D11CC6010E940D04CE010E960E940D04AF
:1014B000CA87DB8784E090E0A0E0B0E0801B910960
:1014C000A109B1098E879F87A88BB98BCE8BDF8B43
:1014D0001FA218A619A61AA61BA6A201B401C5012F
:1014E0000E949D0488839983E114F10419F0F701A7
:1014F000C083D183F091A200FF93F87FF093A20004
:101500008091332C8F5F8093332C8091902C90911D
:10151000912C892BA9F5C093902CD093912C80917C
:10152000332C8130E9F584E69CE20E94FC038FE6CF
:101530009CE20E94FC038AE79CE20E94FC0385E88F
:101540009CE20E94FC0389E59CE20E94FC038EE47D
:101550009CE20E94FC038FE39CE20E94FC0384E374
:101560009CE20E94FC0389E59CE280934C2C9093C2
:101570004D2C8EE49CE280934A2C90934B2C10C00F
:1015800080912D2C81110CC0E091902CF091912C28
:10159000928D8A8D891720F0C093902CD093912C36
:1015A0008091292C8F5F8093292C8DA38A8D909117
:1015B0002E2C981710F480932E2CFBE08F9FC001E7
:1015C0001124B6018C59934D0E941104FF91F093A0
:1015D000A20080912D2C882361F0E091902CF09155
:1015E000912C928D8A8D981730F40E945A0581E0D3
:1015F00005C081E003C081E001C08FEFDF91CF9192
:101600000F91FF90EF90DF90CF90BF90AF909F90A1
:101610008F907F906F905F904F900895EF92FF9220
:101620000F930F2EF3E2EF2EFCE2FF2EF02D00E0E1
:1016300020E030E048EC50E064E070E28FEE99E0AA
:101640000E94F909813009F50E94530F8130E9F4B5
:10165000E0EAF0E08281887F82838FEF9FEFDC01F8
:101660008093252C9093262CA093272CB093282C84
:1016700081E080932D2C10922F2C1092302C109200
:10168000312C1092322C0E941A050F91FF90EF908E
:1016900008958091222C8F5F8093222C0895F091E1
:1016A000A200FF93F87FF093A20060912F2C70911D
:1016B000302C8091312C9091322CFF91F093A2002C
:1016C0000895AF92BF92CF92DF92EF92FF920F9365
:1016D0001F93CF93DF938091222C8111ADC0C090D6
:1016E0002F2CD090302CE090312CF090322C8FEFBA
:1016F000C81AD80AE80AF80AC0922F2CD092302CC7
:10170000E092312CF092322CC114D104E104F104A6
:10171000B9F480914C2C90914D2C20914A2C309111
:101720004B2C20934C2C30934D2C80934A2C90932F
:101730004B2C80912A2C8F5F80932A2C0E944E097B
:101740008091252C9091262CA091272CB091282CAB
:10175000C816D906EA06FB0610F4B12C5CC0B12C01
:101760000F2EFBE0AF2EF02DE0914C2CF0914D2C84
:10177000808181110CC08FEF9FEFDC018093252CBD
:101780009093262CA093272CB093282C44C0E09152
:101790004C2CF0914D2C0780F085E02DC085D18533
:1017A0008A819B81AC81BD81C816D906EA06FB06F9
:1017B00048F48093252C9093262CA093272CB0934B
:1017C000282C29C08E010E5F1F4FC8010E946F0494
:1017D000888D998D892B21F0CE010E960E946F0481
:1017E0008A8D90912E2C981710F480932E2CA89E01
:1017F000C0011124B8018C59934D0E941104E0914D
:10180000902CF091912C9A8D828D981708F4ACCF82
:10181000BB24B394A9CFE091902CF091912CE28D50
:101820008BE0E89FF0011124EC59F34D8081823068
:1018300048F0BB24B39406C080912C2C8F5F80931A
:101840002C2CB12C80912B2C882311F0BB24B39429
:101850008B2DDF91CF911F910F91FF90EF90DF9033
:10186000CF90BF90AF900895CF92DF92EF92FF920A
:101870000F931F93CF93DF93F091A200FF93F87F14
:10188000F093A2008091222C81508093222C809191
:10189000222C81115CC08091332C81112CC05AC044
:1018A000D7011796ED91FC911897C085D185CE018F
:1018B0000E960E946F048E010E5F1F4FC8010E949A
:1018C0006F048A8D90912E2C981710F480932E2CF3
:1018D000D89EC0011124B8018C59934D0E94110467
:1018E000E091902CF091912C9A8D828D981788F030
:1018F000C0922B2C0EC0C0E0D0E00F2EFFE3EF2EE5
:10190000FCE2FF2EF02D0F2EFBE0DF2EF02DCC247D
:10191000C394F70180818111C3CFCD2B11F00E94B8
:101920004E09C0912C2CCC2351F0D1E00E94610BC8
:101930008111D0932B2CC150C9F710922C2C80917F
:101940002B2C882331F00E945A0581E003C080E0EF
:1019500001C080E0FF91F093A200DF91CF911F9131
:101960000F91FF90EF90DF90CF900895CF92DF928C
:10197000EF92FF926B017C01672B682B692B59F06A
:101980000E94490B40E0C701B6010E9478090E94FD
:10199000340C811102C00E945A05FF90EF90DF9035
:1019A000CF9008958091222C882321F081E08093AC
:1019B0002B2C089510922B2CE091902CF091912CCF
:1019C000038CF48DE02D80819181A281B381853AD1
:1019D000954AA54AB54AD9F484819581A681B781F3
:1019E000853A954AA54AB54A91F480859185A285A4
:1019F000B385853A954AA54AB54A49F484859585C3
:101A0000A685B785853A954AA54AB54A61F06091A1
:101A1000902C7091912C8091902C9091912C635EE0
:101A20007F4F0E94350280912E2C282F30E09BE0C2
:101A3000899FF0011124EC59F34D908191110EC052
:101A40004BE08150282F30E0429FF001439FF00D82
:101A50001124EC59F34D9081992399F39BE0929FC7
:101A6000A001939F500D1124DA01AC59B34D11968A
:101A7000ED91FC9112970480F581E02D1196ED9384
:101A8000FC9312974959534DE417F50729F4448103
:101A90005581FD01418352839BE0929FF001939F0A
:101AA000F00D1124EC59F34D0180F281E02D2085D9
:101AB00031852093902C3093912C80932E2C089577
:101AC000CF92DF92EF92FF926A017B016091902C9E
:101AD0007091912C625F7F4F0E94320441E0C701F8
:101AE000B6010E947809FF90EF90DF90CF900895A3
:101AF000CF92DF92EF92FF920F931F9368017901CB
:101B0000E091902CF091912C706846875787608BFC
:101B1000718B6091902C7091912C625F7F4F0E942D
:101B2000110441E0C701B6010E9478091F910F918D
:101B3000FF90EF90DF90CF900895CF92DF92EF92D9
:101B4000FF92CF936A017B01C22F6091902C70911C
:101B5000912C625F7F4F0E941104CC2321F0CC2492
:101B6000CA94DC2C76014C2FC701B6010E9478097B
:101B7000CF91FF90EF90DF90CF9008950F931F9338
:101B8000CF93DF93DC011796ED91FC911897C085F8
:101B9000D1858E01025F1F4FC8010E946F048091A2
:101BA000222C811116C00C501109C8010E946F042B
:101BB0008A8D90912E2C981710F480932E2CBBE0D8
:101BC0008B9FC0011124B8018C59934D0E941104C0
:101BD00005C0B8018FE39CE20E941104E091902CB3
:101BE000F091912C9A8D828D891720F481E0809359
:101BF0002B2C01C080E0DF91CF911F910F910895B0
:101C00000F931F93CF93DF937068FC014083518340
:101C100062837383C085D1850E946F048E010E5F3D
:101C20001F4FC8010E946F048A8D90912E2C981727
:101C300010F480932E2CFBE08F9FC0011124B8017B
:101C40008C59934D0E941104E091902CF091912CAD
:101C50009A8D828D891718F481E080932B2CDF9167
:101C6000CF911F910F91089520912A2CFC01208380
:101C700040912F2C5091302C6091312C7091322C4E
:101C800041835283638374830895CF92DF92EF92EE
:101C9000FF920F931F93CF93DF93DB01F091A2008C
:101CA000FF93F87FF093A20040912F2C5091302C9D
:101CB0006091312C7091322C0D911D912D913C91A0
:101CC00013970F3FCFEF1C072C073C0769F1FC016E
:101CD000C180D280E380F480E0912A2CEC01F8816D
:101CE000FE1729F04C155D056E057F05F8F44C19BB
:101CF0005D096E097F09401751076207730768F491
:101D0000FD01041B150B260B370B00831183228367
:101D100033830E94340E80E00AC01D921D921D92F2
:101D20001C92139781E003C080E001C081E0FF9125
:101D3000F093A200DF91CF911F910F91FF90EF9050
:101D4000DF90CF90089581E080932B2C08958091AF
:101D50002D2C882331F08091222C882321F080E0E3
:101D6000089581E0089582E00895CF92DF92EF9286
:101D7000FF92E091902CF091912C66857785808977
:101D80009189E091902CF091912CA091902CB091A0
:101D9000912C5A962C91C12CD12C76016894C2F8C2
:101DA000C21AD108E108F108C686D786E08AF18A0E
:101DB000FF90EF90DF90CF900895CF92DF92EF9257
:101DC000FF920F931F93FC014283538364837583B7
:101DD000828793870417150726073707C0F00C1969
:101DE0001D092E093F0986859785A089B1890817A5
:101DF00019072A073B0700F5BF016E5F7F4F8091EF
:101E00009A2C90919B2C0E94320480E018C00C15F3
:101E10001D052E053F0528F44C155D056E057F0553
:101E200068F4BF016E5F7F4F80919C2C90919D2C38
:101E30000E94320480E003C081E001C081E01F9174
:101E40000F91FF90EF90DF90CF900895F091A20056
:101E5000FF93F87FF093A2008091982C9091992C99
:101E6000892BE9F489EA9CE20E94FC038EE99CE25A
:101E70000E94FC0389EA9CE280939C2C90939D2C09
:101E80008EE99CE280939A2C90939B2C40E069E031
:101E900085E00E945F078093982C9093992CFF9186
:101EA000F093A2000895EF92FF920F930E94260FE5
:101EB0008091982C9091992C892B91F00F2EF6E916
:101EC000EF2EFCE2FF2EF02D03E020E030E048ECA6
:101ED00050E069E070E286E690E10E94F90901C0F5
:101EE00080E00F91FF90EF9008958F929F92AF92B4
:101EF000BF92CF92DF92EF92FF920F931F93CF93F7
:101F0000DF93CDB7DEB72997CDBFDEBFE091982C28
:101F1000F091992C309789F169832A833B834C8314
:101F20005D838E839F836630FCF40E94A70E82300F
:101F300069F400E0A7019601BE016F5F7F4F8091B9
:101F4000982C9091992C0E94900718C000E020E0F6
:101F500030E0A901BE016F5F7F4F8091982C909176
:101F6000992C0E9490070AC020E0A801BE016F5F73
:101F70007F4FCF010E94360801C080E02996CDBF77
:101F8000DEBFDF91CF911F910F91FF90EF90DF9017
:101F9000CF90BF90AF909F908F9008952F923F92D7
:101FA0004F925F926F927F928F929F92AF92BF9269
:101FB000CF92DF92EF92FF920F931F93CF93DF9315
:101FC0001C010E944F0B2B013C018091922C90919F
:101FD000932CA091942CB091952C481659066A0622
:101FE0007B0608F054C03CC00780F085E02D80805F
:101FF0009180A280B380C085D1858E010E5F1F4F76
:10200000C8010E946F04ED89FE89CE0119958A8965
:10201000813031F58E859F85A889B989880D991DF4
:10202000AA1DBB1D88169906AA06BB0670F48A83F2
:102030009B83AC83BD83CA87DB87B80180919C2CCE
:1020400090919D2C0E9432040BC0C12CD12C7601A2
:1020500000E010E0A501940160E0CE010E94750F40
:10206000E0919C2CF0919D2C80818111BDCF8091BD
:102070009A2C90919B2C80939C2C90939D2CE09378
:102080009A2CF0939B2C81E0F101808302C0F10136
:1020900010824092922C5092932C6092942C7092C9
:1020A000952CC301B201DF91CF911F910F91FF9049
:1020B000EF90DF90CF90BF90AF909F908F907F90E8
:1020C0006F905F904F903F902F900895CF93DF9344
:1020D000CDB7DEB72E97CDBFDEBFCE0101961C0176
:1020E000A82EB32CE0919C2CF0919D2C808188230C
:1020F00009F403C10780F085E02D408051806280A3
:1021000073800E94490BC1010E94CE0F6B877C87B0
:102110008D879E87898181115EC08B859C85AD8569
:10212000BE8584159505A605B705E8F10E94340C17
:10213000E0919C2CF0919D2C0780F085E02D80840F
:102140009184C40102960E946F04D40152968C912E
:102150005297813001F51E964D915D916D917C9164
:102160005197440D551D661D771D730162010B8546
:102170001C852D853E85C4010E94DD0E882359F003
:10218000C12CD12C760100E010E0A301920160E0A7
:10219000C4010E94750FD4015596ED91FC9156979C
:1021A000C40119959CC020E0B301A2018B859C85D8
:1021B000AD85BE85481B590B6A0B7B0B8091982C13
:1021C0009091992C0E942D090E94340C811187C096
:1021D0000E945A0584C00E94340C81C089818823E2
:1021E0006CF44E815F8168857985EA81FB818C8101
:1021F0009D811995898188230CF471C08E809F8000
:10220000D4011C968D919C911D97892B21F0C401BE
:1022100002960E946F04CE010A960E94CE0F8B0197
:102220009C018981082E000C990BAA0BBB0B8A30EC
:10223000910508F054C0FC018827E250FF4F8F4FF2
:102240000C94721FCA80DB80EC80FD80F40146850F
:102250005785608971894C0D5D1D6E1D7F1DC40100
:102260000E94DD0E8823D9F1D4015596ED91FC91A1
:102270005697C4011995F4018289813081F54A810C
:102280005B816C817D8186859785A089B1899A0162
:10229000AB01280F391F4A1F5B1FC12CD12C7601BF
:1022A00000E010E060E0C4010E94750F18C04A8190
:1022B0005B816C817D81D4011E964D935D936D93FE
:1022C0007C935197400F511F621F731F6801790162
:1022D000C4010E94DD0E03C0C4010E94FB0320E084
:1022E00030E0A9016A2D7B2D8091982C9091992C3A
:1022F0000E947B08811172CFF5CE0E94490BC1016B
:102300000E94CE0F6B877C878D879E878981811184
:1023100062CFE0919A2CF0919B2C808121E0811179
:1023200020E0412C512C32013FCF0F931F93CF93CC
:10233000DF93CDB7DEB72997CDBFDEBFEEEFE983E0
:102340008A839B836C837D832E833F834887598751
:1023500020E0A801BE016F5F7F4F8091982C909183
:10236000992C0E9436082996CDBFDEBFDF91CF9110
:102370001F910F910895E0E5F0E0808181608083F6
:10238000818180FFFDCF80E00E9407028EE10E94E4
:10239000F70160E080E00E94010243E060E080E439
:1023A0000E94E801E0E5F0E080818860808381811F
:1023B00083FFFDCF64E080EC0E94F201E0E5F0E0F5
:1023C00080818061808360E080E00E940102E0E51E
:1023D000F0E0818184FFFDCF84E00E94070287E066
:1023E0000E94F701089501E110E2EE24E394C0E2B7
:1023F000D0E26894FF24F1F80E94C80164EF71E014
:1024000080E090E00E94B60C8091BB2C8F9380916D
:10241000BA2C8F938091B92C8F938091B82C8F9385
:102420008091B72C8F938091B62C8F938091B52C8F
:102430008F938091B42C8F931F930F931F921F92B1
:102440001F92EF920E94B315DF93CF931F921F92BA
:102450001F92FF920E94B31541E050E060E070E0EF
:102460008091E52C9091E62C0E9412038DB79EB7C7
:1024700044968DBF9EBFC0CF1092B42C1092B52C45
:102480001092B62C1092B72C1092B82C1092B92C36
:102490001092BA2C1092BB2CC12CD12CE12CF12C17
:1024A00000E010E0D0E0C0E02C2D3D2D4E2D5F2D42
:1024B000602F712F8D2F9C2F02E00E947A1FC22E59
:1024C000D32EE42EF52E062F172FD82FC92FA3E0D9
:1024D0000E94931F0E94AD1A9B01AC0160E070E066
:1024E00080E89FE30E94C8199B01AC016091002025
:1024F0007091012080910220909103200E94561932
:102500004B015C012C2D3D2D4E2D5F2D602F712F29
:102510008D2F9C2FA5E00E94931F0E94AD1A9B0156
:10252000AC0160E070E080E89FE30E94C8199B0165
:10253000AC01C501B4010E94571920E030E040E829
:1025400050E40E94651B60930020709301208093EB
:1025500002209093032041E050E060E070E0809121
:10256000E52C9091E62C0E9433032091B42C3091FD
:10257000B52C4091B62C5091B72C6091B82C70912D
:10258000B92C8091BA2C9091BB2CA1E00E94931F92
:10259000C22ED32EE42EF52E062F172FD82FC92F9B
:1025A0002093B42C3093B52C4093B62C5093B72C79
:1025B0006093B82C7093B92C8093BA2C9093BB2C59
:1025C0000E94AD1A20E034E244E759E40E94C319A6
:1025D00018160CF069CF50CF0895EF92FF920F9329
:1025E0000E9438028093E52C9093E62C0E94BB1148
:1025F0000E942C14E12CF12C01E020E030E048ECAA
:1026000050E06AE270E283EF91E10E94F90920E074
:1026100030E048EC50E068E370E28CE392E10E9425
:10262000F9090E94A81588E490E29F938F931F9266
:102630001F921F921F920E94B3150E940E0B0F90C3
:102640000F900F900F900F900F9080E090E00F91FF
:10265000FF90EF9008951F920F920FB60F921124E2
:102660000BB60F922F933F934F935F936F937F938C
:102670008F939F93AF93BF93EF93FF93CF93DF938A
:102680001F92CDB7DEB719829E012F5F3F4F41E009
:1026900050E060E070E080913F2D9091402D0E94CD
:1026A000C80360E080E09BE00E941C021092060BD1
:1026B0000F90DF91CF91FF91EF91BF91AF919F91DB
:1026C0008F917F916F915F914F913F912F910F90DB
:1026D0000BBE0F900FBE0F901F901895CF92DF92F8
:1026E000EF92FF920F936B017C0182E0C816D10438
:1026F000E104F10408F44EC0E0E0FBE081E08683F1
:1027000010A211A260E080E09BE00E9422028EEF06
:10271000C8168FEFD806E104F10470F4F694E7943C
:10272000D794C794C092260BD092270B65E080E027
:102730009BE00E941C0219C080E4C81682E4D806FF
:102740008FE0E806F10488F4689414F8F694E794AE
:10275000D794C7941694D1F7C092260BD092270B2A
:1027600067E080E09BE00E941C020F2EF4EFCF2E6A
:10277000DD24D394E12CF12CF02D00E021E041E0A8
:1027800050E060E070E080913F2D9091402D0E94DC
:102790004D0211C0E0E0FBE081E0868310A211A2AF
:1027A00060E080E09BE00E942202C12CD12C7601E7
:1027B0006894C1F8B3CF0F91FF90EF90DF90CF9066
:1027C00008958295807FE0E0F6E09481282F2F60C5
:1027D000922394839481892B848308951F93CF93AC
:1027E000DF93C0E6D6E014E01D8361E070E080E096
:1027F00090E00E946E131E83DF91CF911F91089588
:10280000CF93C82F82958F700E94E113E0E6F6E027
:1028100081E0868382E086830E94EE138C2F8F7086
:102820000E94E1130E94EE13CF910895CF93C82F19
:1028300082958F700E94E113E0E6F6E081E08583E7
:1028400082E086830E94EE138C2F8F700E94E1132A
:102850000E94EE13CF910895EF92FF920F93E0E064
:10286000F6E080E1818380E2818380E4818380E8F7
:102870008183A0E6B6E081E011968C93119782E007
:1028800011968C93119784E011968C931197848103
:102890008F70848314968C911497887F14968C93F0
:1028A00040E066E188E00E945F0780933D2D9093B1
:1028B0003E2D0E94380280933F2D9093402DE12CB5
:1028C000F12C02E020E030E04EE551E06CE570E2F2
:1028D0008AEC94E10E94F9090F91FF90EF9008951E
:1028E0008130910579F01CF4892B39F019C08230C0
:1028F000910569F0039781F013C080E8860F0E946C
:1029000000140EC080EC860F0E94001409C084E9F8
:10291000860F0E94001404C084ED860F0E940014EC
:1029200067E270E080E090E00E946E1308950E94DC
:1029300016146BE270E080E090E00E946E13089540
:102940000F931F93CF93DF93FC01808181110AC005
:1029500011C08991882371F00E9497140C171D07EC
:10296000C1F708C08F010E949714E80121960C5E00
:102970001F4FEFCFDF91CF911F910F910895CF930C
:10298000DF93EA010E947014CE010E94A014DF912F
:10299000CF910895CF93DF93CDB7DEB7C656D10957
:1029A000CDBFDEBF5E0141E5A40EB11CFE01319634
:1029B00020E208C02193E817F907E1F7FC01A81607
:1029C000B90619F0CF014496F5CF60E47CE980E0C8
:1029D00090E00E946E1383E00E94E11368E873E1C7
:1029E00080E090E00E946E130E94EE1360EA70E0B7
:1029F00080E090E00E946E130E94EE1360EA70E0A7
:102A000080E090E00E946E130E94EE1360EA70E096
:102A100080E090E00E946E1382E00E94E1130E9429
:102A2000EE1388E20E94001480E10E9400148CE002
:102A30000E94001486E00E94001410E26E0151E52D
:102A4000C50ED11C0F2EF4E14F2EF02D0F2EF6E106
:102A50008F2E912CF02D5C2C0D2D68EC70E080E019
:102A600090E00E94B60C40E050E0BA0180913F2D0A
:102A70009091402D0E941203672B682B692B09F45B
:102A800049C042E050E060E070E080913F2D9091BD
:102A9000402D0E941203FE01319608C01193E817E1
:102AA000F907E1F7FC018A159B05A1F1CF014496D6
:102AB000F5CF2FEF3FEFA901652D702F80913D2DB0
:102AC00090913E2D0E947B08882321F1F6012181FF
:102AD000822F90E04497F4F482818823D9F090818A
:102AE00030E0D901499EA00DB11D112441E050E014
:102AF0004C0F5D1FA40FB51F3396A401421B530B4F
:102B00009A012C0D3D1D8D93E217F30719F0819169
:102B10008111F9CF80913D2D90913E2D0E94210988
:102B20008111C7CFCE0101967C01612C712CA701C8
:102B300060E070E0C3010E94BF149FEF691A790A38
:102B4000E4E1EE0EF11CF4E06F16710481F785CF1D
:102B500042E050E060E070E080913F2D9091402D88
:102B60000E94330308952F923F924F925F926F928B
:102B70007F928F929F92AF92BF92CF92DF92EF920D
:102B8000FF920F931F93CF93DF93CDB7DEB76D976F
:102B9000CDBFDEBF2BA92B8FAFA9B8AD7E0139E326
:102BA000E30EF11C24EE3CE2E0EDFCE21192E217B0
:102BB000F307E1F70F2EFCEBAF2EFCE2BF2EF02D5A
:102BC00020ED3CE2F5011192E217F307E1F7812CC9
:102BD000912C0F2EF0EDCF2EFCE2DF2EF02DFCC25B
:102BE000853209F0E8C22D0182E0480E511C119691
:102BF0008C91853609F4DBC138F48336C1F008F0D6
:102C000048C0853251F0E7C28337F9F0883709F4BC
:102C100068C0863609F0DFC28CC0F401E454F34D7D
:102C200095E29083AFEF8A1A9A0AD201D5C2F401D5
:102C3000E454F34DD7018C918083BFEF8B1A9B0A2C
:102C4000F70132967F01D201C7C2A7014E5F5F4FE5
:102C5000D7018D919C919C01B401F401E454F34D92
:102C600000E010E006C0D901FD909D01F1920F5FD8
:102C70001F4FDC010D900020E9F71197A81BB90B3D
:102C80000A171B0780F34D01860E971E7A01D201A9
:102C9000A3C287010E5F1F4F4AE0B601F701808192
:102CA00091810E949D209401D401A454B34D40ED24
:102CB0005CE280E090E005C0FA016191AF016D93A4
:102CC0000196F60101900020E9F73197E05DFC42A2
:102CD0008E179F0788F34F01820E931E7801D20151
:102CE0007BC287010E5F1F4F40E1B601D7018D9176
:102CF0009C910E949D209401F401E454F34D40ED19
:102D00005CE280E090E005C0DA016D91AD01619375
:102D10000196D6010D900020E9F71197A05DBC4205
:102D20008A179B0788F34D01820E931E7801D2010A
:102D300053C21701B4E02B0E311CD7018D919D9128
:102D40000D90BC91A02D8F8B988FA98FBA8F20E00A
:102D500030E0A901BC01CD010E94C319811105C059
:102D600020E3F6012083118204C120E030E0A901B4
:102D70006F89788D898D9A8D0E94C31988239CF460
:102D8000EDE2D601EC938F89988DA98DBA8DB0585C
:102D90008F8B988FA98FBA8F0F2EF1ED6F2EFCE2DB
:102DA0007F2EF02D01C0360120E030E040E85FE3E7
:102DB0006F89788D898D9A8D0E94601B88230CF411
:102DC00044C200E010E020E030E040E251E46F89CE
:102DD000788D898D9A8D0E94C8196F8B788F898F15
:102DE0009A8F0F5F1F4F20E030E040E85FE30E94C2
:102DF000601B882344F72DEC3CEC4CEC5DE36F89C1
:102E0000788D898D9A8D0E94C31988231CF01AC071
:102E100000E010E020E030E040E251E46F89788D7E
:102E2000898D9A8D0E94651B6F8B788F898F9A8F01
:102E3000015011092DEC3CEC4CEC5DE30E94C319F0
:102E4000882344F310161106ACF57301D301A00FCB
:102E5000B11FAC8FBD8F3D016F89788D898D9A8DA3
:102E600020E030E040E251E40E94651B6F8B788FD8
:102E7000898F9A8F0E943A1A20E3260FF701219337
:102E80007F01072E000C880B990B0E94721A9B0180
:102E9000AC016F89788D898D9A8D0E945619E61440
:102EA000F704F1F66F8B788F898F9A8F01151105D2
:102EB00089F4DBC1C801E0E3D301EC937301F2E0D4
:102EC000EF0EF11C2EE211962C9399236CF000E08A
:102ED00010E01FC0EC8CFD8C3FEFE31AF30AEEE22A
:102EE000AC8DBD8DEC9312C000E010E0FFEFEF1A47
:102EF000FF0AF701319720E3208301970F5F1F4FEF
:102F0000992324F4043011058CF331C004301105E9
:102F100074F5370184E090E0801B910BE80EF91EF8
:102F200087016F89788D898D9A8D20E030E040E2AD
:102F300051E40E94651B6F8B788F898F9A8F0E9456
:102F40003A1A20E3260FD3012D933D01072E000CE2
:102F5000880B990B0E94721A9B01AC016F89788DC6
:102F6000898D9A8D0E94561960167106F1F6F70147
:102F700010829401F401E454F34D40ED5CE280E0F2
:102F800090E005C0DA016D91AD0161930196D60123
:102F90000D900020E9F71197A05DBC428A179B07AE
:102FA00088F34D01820E931E7101D20115C11701E4
:102FB000B4E02B0E311CD7018D919D910D90BC91E9
:102FC000A02D8F8B988FA98FBA8F20E030E0A901B8
:102FD000BC01CD010E94C319811105C020E3F60197
:102FE00020831182CAC020E030E0A9016F89788D6A
:102FF000898D9A8D0E94C31988239CF4EDE2D60135
:10300000EC938F89988DA98DBA8DB0588F8B988F3E
:10301000A98FBA8F0F2EF1ED6F2EFCE27F2EF02DCF
:1030200001C0360120E030E040E85FE36F89788D31
:10303000898D9A8D0E94601B8823DCF000E010E0EF
:1030400020E030E040E251E46F89788D898D9A8DDF
:103050000E94C8196F8B788F898F9A8F0F5F1F4FCF
:1030600020E030E040E85FE30E94601B882344F7E3
:1030700002C000E010E02DEC3CEC4CEC5DE36F890D
:10308000788D898D9A8D0E94C3198823C4F420E01D
:1030900030E040E251E46F89788D898D9A8D0E94ED
:1030A000651B6F8B788F898F9A8F015011092DECDA
:1030B0003CEC4CEC5DE30E94C319882344F320E010
:1030C00030E040E251E46F89788D898D9A8D0E94BD
:1030D000651B6F8B788F898F9A8F0E943A1A20E335
:1030E000260FD3012C93072E000C880B990B0E94FE
:1030F000721A9B01AC016F89788D898D9A8D0E941F
:103100005619F8013197EC8FFD8FEEE2D30111963D
:10311000EC9383010E5F1F4F7301F6E0EF0EF11C7D
:1031200020E030E040E251E40E94651B6F8B788F15
:10313000898F9A8F0E943A1A20E3260FD8012D9387
:103140008D01072E000C880B990B0E94721A9B01AF
:10315000AC016F89788D898D9A8D0E9456190E1554
:103160001F05F1F625E6F3012683B301695F7F4F62
:103170004AE08C8D9D8D0E949D209401F401E454C1
:10318000F34D40ED5CE280E090E005C0DA016D9126
:10319000AD0161930196D6010D900020E9F71197DA
:1031A000A05DBC428A179B0788F34D01820E931ED7
:1031B0007101D20111C08A3029F0F401E454F34DB9
:1031C000808304C0F401E454F34D10821196EFEFB4
:1031D0008E1A9E0A01C0D2018C91811101CD8DA958
:1031E0009EA9880D991D44973CF084E190E04C0124
:1031F0002DA93EA9821A930AFE013396CE01479665
:10320000DF011D92A817B907E1F73B8D39838DA91E
:103210008A83181419045CF4CE01880D991D039655
:10322000D5012D915D0121938E179F07C9F700E00D
:103230002FEF3FEFA901BE016F5F7F4F80913D2DC2
:1032400090913E2D0E9490071BC02DEC3CEC4CEC65
:103250005DE36F89788D898D9A8D0E94C3198823CB
:103260000CF4D6CD80E090E026CE20E3EC8DFD8DF1
:1032700020837F0132E0E30EF11C8EE2818346CE93
:103280006D96CDBFDEBFDF91CF911F910F91FF9063
:10329000EF90DF90CF90BF90AF909F908F907F90F6
:1032A0006F905F904F903F902F9008955058BB279C
:1032B000AA270E946E190C94261B0E94181B38F036
:1032C0000E941F1B20F039F49F3F19F426F40C9440
:1032D000151B0EF4E095E7FB0C940F1BE92F0E94E1
:1032E000371B58F3BA17620773078407950720F056
:1032F00079F4A6F50C94591B0EF4E0950B2EBA2F19
:10330000A02D0B01B90190010C01CA01A0011124EB
:10331000FF27591B99F0593F50F4503E68F11A1697
:10332000F040A22F232F342F4427585FF3CF469528
:1033300037952795A795F0405395C9F77EF41F164A
:10334000BA0B620B730B840BBAF09150A1F0FF0F14
:10335000BB1F661F771F881FC2F70EC0BA0F621F00
:10336000731F841F48F4879577956795B795F795F0
:103370009E3F08F0B0CF9395880F08F09927EE0F85
:103380009795879508950E94EB1A08F481E00895B7
:103390000E94DC190C94261B0E941F1B58F00E94EF
:1033A000181B40F029F45F3F29F00C940F1B5111BA
:1033B0000C945A1B0C94151B0E94371B68F399231D
:1033C000B1F3552391F3951B550BBB27AA27621721
:1033D0007307840738F09F5F5F4F220F331F441F2E
:1033E000AA1FA9F335D00E2E3AF0E0E832D0915062
:1033F0005040E695001CCAF72BD0FE2F29D0660F4F
:10340000771F881FBB1F261737074807AB07B0E891
:1034100009F0BB0B802DBF01FF2793585F4F3AF097
:103420009E3F510578F00C940F1B0C945A1B5F3F84
:10343000E4F3983ED4F3869577956795B795F7951D
:103440009F5FC9F7880F911D9695879597F9089505
:10345000E1E0660F771F881FBB1F621773078407A1
:10346000BA0720F0621B730B840BBA0BEE1F88F7B0
:10347000E09508950E94411A6894B1110C945A1B6A
:1034800008950E943F1B88F09F5798F0B92F992705
:10349000B751B0F0E1F0660F771F881F991F1AF03F
:1034A000BA95C9F714C0B13091F00E94591BB1E030
:1034B00008950C94591B672F782F8827B85F39F02F
:1034C000B93FCCF3869577956795B395D9F73EF4D8
:1034D00090958095709561957F4F8F4F9F4F089580
:1034E000E89409C097FB3EF490958095709561959E
:1034F0007F4F8F4F9F4F9923A9F0F92F96E9BB2754
:103500009395F695879577956795B795F111F8CFCF
:10351000FAF4BB0F11F460FF1BC06F5F7F4F8F4F3A
:103520009F4F16C0882311F096E911C0772321F030
:103530009EE8872F762F05C0662371F096E8862FC8
:1035400070E060E02AF09A95660F771F881FDAF71F
:10355000880F9695879597F90895E894F92F96EB3B
:10356000FF2381F0121613061406440B9395F6956B
:1035700087957795679557954040FF23B9F71BC00E
:1035800099270895882351F49850D2F7872B762FE6
:10359000652F542F432F322F20E0B1F3121613065C
:1035A0001406440B88233AF09A95440F551F661F62
:1035B000771F881FCAF755234AF4440F551F11F48B
:1035C00060FF04C06F5F7F4F8F4F9F4F880F9695AE
:1035D000879597F90895990F0008550FAA0BE0E811
:1035E000FEEF16161706E807F907C0F012161306C5
:1035F000E407F50798F0621B730B840B950B39F405
:103600000A2661F0232B242B252B21F408950A266A
:1036100009F4A140A6958FEF811D811D089597F9AA
:103620009F6780E870E060E008959FEF80EC089568
:1036300000240A9416161706180609060895002491
:103640000A9412161306140605060895092E03940B
:10365000000C11F4882352F0BB0F40F4BF2B11F47F
:1036600060FF04C06F5F7F4F8F4F9F4F089557FDDE
:103670009058440F551F59F05F3F71F04795880FE0
:1036800097FB991F61F09F3F79F087950895121677
:1036900013061406551FF2CF4695F1DF08C0161623
:1036A00017061806991FF1CF8695710561050894D4
:1036B0000895E894BB2766277727CB0197F90895EB
:1036C0000E94EB1A08F48FEF08950E94781B0C9467
:1036D000261B0E94181B38F00E941F1B20F0952308
:1036E00011F00C940F1B0C94151B11240C945A1BF5
:1036F0000E94371B70F3959FC1F3950F50E0551F43
:10370000629FF001729FBB27F00DB11D639FAA2736
:10371000F00DB11DAA1F649F6627B00DA11D661F85
:10372000829F2227B00DA11D621F739FB00DA11DA6
:10373000621F839FA00D611D221F749F3327A00D60
:10374000611D231F849F600D211D822F762F6A2FFC
:1037500011249F5750409AF0F1F088234AF0EE0F61
:10376000FF1FBB1F661F771F881F91505040A9F78E
:103770009E3F510580F00C940F1B0C945A1B5F3F29
:10378000E4F3983ED4F3869577956795B795F795CA
:10379000E7959F5FC1F7FE2B880F911D9695879542
:1037A00097F908952F923F924F925F926F927F9276
:1037B0008F929F92AF92BF92CF92DF92EF92FF9241
:1037C0000F931F93CF93DF93CDB7DEB76097CDBF35
:1037D000DEBF7C011B016A01FC0116821782838116
:1037E00081FF44C39E012F5F3F4F3901F701938151
:1037F000F10193FD859193FF81911F01882309F4C5
:1038000031C3853239F493FD859193FF81911F0176
:10381000853239F4B70190E00E94C220560165015B
:10382000E5CF10E0512C912CFFE1F915D8F08B3247
:1038300079F038F4803279F08332A1F4F92DF06117
:103840002EC08D3261F0803369F4292D21602DC0A6
:10385000392D3260932E892D8460982E2AC0E92D4F
:10386000E86015C097FC2DC020ED280F2A3088F4A1
:1038700096FE06C03AE0139F200D1124122F19C0A6
:103880008AE0589E200D1124522EE92DE0629E2ED2
:1038900010C08E3231F496FCE5C2F92DF0649F2EF3
:1038A00008C08C3621F4292D2068922E02C088365B
:1038B00041F4F10193FD859193FF81911F018111E5
:1038C000B3CF9BEB980F933020F4992D9061805EDD
:1038D00007C09BE9980F933008F066C1992D9F7E31
:1038E00096FF16E09F73992E853619F49064992EF1
:1038F00008C0863621F4392F3068932E02C011118A
:10390000115097FE07C01C3350F444244394410ED9
:1039100027E00BC0183038F027E017E005C027E09B
:103920009CE3492E02C0212F412C560184E0A80EB1
:10393000B11CF6016081718182819381042DA30104
:103940000E949F1F6C01F981FC87F0FF02C0F3FF0A
:1039500006C091FC06C092FE06C000E205C00DE262
:1039600003C00BE201C000E08C858C7019F00111DE
:103970005AC29BC297FE10C04C0CFC85F4FF04C0D9
:103980008A81813309F44A94141474F528E02415CB
:1039900078F588E0482E2CC096FC2AC0812F90E054
:1039A0008C159D059CF03CEFC3163FEFD30674F0D9
:1039B000892D8068982E0AC0E2E0F0E0EC0FFD1F30
:1039C000E10FF11D8081803319F411501111F4CFF2
:1039D00097FE0EC044244394410E812F90E0C816F8
:1039E000D9062CF41C1904C04424439401C010E0EF
:1039F00097FE06C01C141D0434F4C601019605C0D0
:103A000085E090E002C081E090E001110196112371
:103A100031F0212F30E02F5F3F4F820F931F252D74
:103A200030E08217930714F4581A01C0512C892DE5
:103A3000897049F4552039F0B70180E290E00E9486
:103A4000C2205A94F7CF002329F0B701802F90E0CD
:103A50000E94C22093FC09C0552039F0B70180E3D1
:103A600090E00E94C2205A94F7CF97FE4CC04601C6
:103A7000D7FE02C0812C912CC60188199909F30147
:103A8000E80FF91FED87FE879601241931092F876A
:103A9000388B012F10E01195019511093FEF831626
:103AA000930629F4B7018EE290E00E94C220C81468
:103AB000D9044CF08F8598898815990524F4ED85F3
:103AC000FE85818101C080E3F1E08F1A91082D8588
:103AD0003E852F5F3F4F2D873E87801691062CF045
:103AE000B70190E00E94C220D9CFC814D90441F494
:103AF0009A81963320F4953319F43C8534FF81E3A1
:103B0000B70190E04EC08A81813319F09C859F7E79
:103B10009C87B70190E00E94C220111105C094FC5F
:103B200018C085E690E017C0B7018EE290E00E94D1
:103B3000C2201E5F82E001E0080FF301E80FF11DD3
:103B40008081B70190E00E94C220802F0113F3CF43
:103B5000E6CF85E490E0B7010E94C220D7FC06C002
:103B6000C114D10441F4EC85E4FF05C0D194C194A3
:103B7000D1088DE201C08BE2B70190E00E94C22023
:103B800080E32AE0C216D1042CF08F5FFAE0CF1A4E
:103B9000D108F7CFB70190E00E94C220B701C6015B
:103BA000C0960E94C22054C1833631F0833779F029
:103BB000833509F056C020C0560132E0A30EB11C77
:103BC000F6018081898301E010E0630112C0560193
:103BD000F2E0AF0EB11CF601C080D18096FE03C0AA
:103BE000612F70E002C06FEF7FEFC6010E9492204C
:103BF0008C01F92DFF7714C0560122E0A20EB11CF2
:103C0000F601C080D18096FE03C0612F70E002C033
:103C10006FEF7FEFC6010E9477208C01F92DF068CD
:103C20009F2EF3FD1AC0852D90E008171907A8F400
:103C3000B70180E290E00E94C2205A94F4CFF601CE
:103C400097FC859197FE81916F01B70190E00E94EA
:103C5000C22051105A94015011090115110579F72C
:103C6000F7C0843611F0893661F5560197FE09C018
:103C700024E0A20EB11CF6016081718182819381E2
:103C80000AC0F2E0AF0EB11CF60160817181072E0F
:103C9000000C880B990BF92DFF769F2E97FF09C01A
:103CA00090958095709561957F4F8F4F9F4FF068ED
:103CB0009F2E2AE030E0A3010E94FE20C82EC618E5
:103CC0003FC0092D853721F40F7E2AE030E01DC06A
:103CD000097F8F3691F018F4883559F0C3C08037CA
:103CE00019F0883711F0BEC0006104FF09C00460FC
:103CF00007C094FE08C0066006C028E030E005C09A
:103D000020E130E002C020E132E0560107FF09C0A7
:103D100084E0A80EB11CF6016081718182819381DB
:103D200008C0F2E0AF0EB11CF6016081718180E045
:103D300090E0A3010E94FE20C82EC6180F77902E97
:103D400096FE0BC0092D0E7FC11650F494FE0AC0DA
:103D500092FC08C0092D0E7E05C0DC2C092D03C085
:103D6000DC2C01C0D12E04FF0DC0FE01EC0DF11DB5
:103D70008081803311F4097E09C002FF06C0D3940C
:103D8000D39404C0802F867809F0D39403FD11C02A
:103D900000FF06C01C2DD51480F4150D1D190DC093
:103DA000D51458F4B70180E290E00E94C220D39469
:103DB000F7CFD51410F45D1801C0512C04FF10C0CA
:103DC000B70180E390E00E94C22002FF17C001FD0E
:103DD00003C088E790E002C088E590E0B7010CC01E
:103DE000802F867859F001FF02C08BE201C080E28B
:103DF00007FD8DE2B70190E00E94C220C11638F4A1
:103E0000B70180E390E00E94C2201150F7CFCA941E
:103E1000F301EC0DF11D8081B70190E00E94C220FA
:103E2000C110F5CF15C0F4E0F51560F584E0581A1F
:103E300093FE1FC0011127C02C8523FF2AC008E371
:103E400012E0392D3071932EF8018491811124C034
:103E5000552009F4E4CCB70180E290E00E94C22032
:103E60005A94F6CFF7018681978126C08FEF9FEF96
:103E700023C0B70180E290E00E94C2205A94511002
:103E8000F8CFD8CF512CB701802F90E00E94C220EC
:103E9000D3CF0CE312E0D5CF91108052B70190E060
:103EA0000E94C2200F5F1F4FCFCF23E0251510F4D3
:103EB00083E0BDCF512CC0CF6096CDBFDEBFDF9178
:103EC000CF911F910F91FF90EF90DF90CF90BF9017
:103ED000AF909F908F907F906F905F904F903F90AA
:103EE0002F900895EE0FFF1F881F8BBF0790F6914C
:103EF000E02D19940F93083090F0982F872F762F8C
:103F0000652F542F432F322F22270850F4CF220F32
:103F1000331F441F551F661F771F881F991F0A955F
:103F2000B2F70F9108950024A7FD00942A0F301DC9
:103F3000401D501D601D701D801D901D089528306E
:103F400008F027E03327DA01990F311D87FD9160D2
:103F500000966105710539F432602E5F3D9330E3C0
:103F60002A95E1F708959F3F30F08038710561058B
:103F700009F03C5F3C5F3D93913008F08068911DF3
:103F8000DF93CF931F930F93FF92EF92192F987F98
:103F90009695E92F96959695E90FFF27E656FD4FE2
:103FA00099273327EE24FF24A701E7010590089401
:103FB000079428F4360FE71EF81E491F511D660F9F
:103FC000771F881F991F0694A1F70590079428F47E
:103FD000E70EF81E491F561FC11D770F881F991F36
:103FE000661F0694A1F70590079428F4F80E491F60
:103FF000561FC71FD11D880F991F661F771F069474
:10400000A1F70590079420F4490F561FC71FD81F2A
:10401000990F661F771F881F0694A9F78491109542
:10402000177041F0D695C79557954795F794E79443
:104030001A95C1F7E0E4F2E0689415901591359176
:104040006591959105907FE27395E118F10A430B14
:10405000560BC90BD009C0F7E10CF11E431F561FC8
:10406000C91FD01D7EF4703311F48A95E6CFE89411
:10407000015030F0080F0AF40027021708F4202F2F
:104080002395022F7A3328F079E37D932A95E9F777
:1040900010C07D932A9589F6069497956795379574
:1040A00017951794E118F10A430B560BC90BD00969
:1040B00098F023957E9173957A3308F070E37C93A2
:1040C0002013B8F77E9170617D9330F0839571E392
:1040D0007D9370E32A95E1F71124EF90FF900F9103
:1040E0001F91CF91DF91992787FD90950895FC014D
:1040F0000590615070400110D8F7809590958E0F13
:104100009F1F0895FB01DC0102C001900D924150F8
:104110005040D8F70895DC0101C06D9341505040E4
:10412000E0F70895FC016150704001900110D8F74C
:10413000809590958E0F9F1F0895BB274A3031F4CC
:10414000992322F4BDE2909581959F4F0C94A9206C
:10415000BB27FB015527AA27880F991FAA1FA41761
:1041600010F0A41B83955051B9F7A05DAA3308F055
:10417000A95DA193009779F7B111B1931192CB0189
:104180000C945C210F931F93CF93DF93FB0123814A
:1041900021FD03C08FEF9FEF2CC022FF16C0468188
:1041A0005781248135814217530744F4A081B1819E
:1041B0009D012F5F3F4F208331838C932681378170
:1041C0002F5F3F4F2683378314C08B01EC01FB0127
:1041D0000084F185E02D1995892BE1F6D80116961A
:1041E0008D919C911797019616968D939C93179796
:1041F000CE01DF91CF911F910F910895FA01AA2767
:10420000283051F1203181F1E8946F936E7F6E5F19
:104210007F4F8F4F9F4FAF4FB1E03ED0B4E03CD0C7
:10422000670F781F891F9A1FA11D680F791F8A1FAA
:10423000911DA11D6A0F711D811D911DA11D20D011
:1042400009F468943F912AE0269F11243019305DCB
:104250003193DEF6CF010895462F4770405D4193BC
:10426000B3E00FD0C9F7F6CF462F4F70405D4A3309
:1042700018F0495D31FD4052419302D0A9F7EACFD1
:10428000B4E0A6959795879577956795BA95C9F700
:1042900000976105710508959B01AC010A2E0694F3
:1042A0005795479537952795BA95C9F7620F731FAC
:1042B000841F951FA01D0895DC01FC01672F7191DB
:1042C0007723E1F7329704C07C916D9370836291FC
:0C42D000AE17BF07C8F30895F894FFCFA5
:1042DC000000803F49444C4500546D722053766376
:1042EC0000497465726174696F6E733A20256400BD
:1042FC0050692056616C75653A00496E746572663A
:10430C006163655461736B0043616C63756C6174BC
:10431C00696F6E5461736B0043616C63756C61748F
:10432C00696E672050692076302E31006469737095
:08433C00557064617465000016
:00000001FF
